{
  "contractName": "PieOrg",
  "abi": [
    {
      "constant": true,
      "inputs": [
        {
          "name": "",
          "type": "uint256"
        }
      ],
      "name": "proposals",
      "outputs": [
        {
          "name": "toAddress",
          "type": "address"
        },
        {
          "name": "amount",
          "type": "uint256"
        },
        {
          "name": "metadata",
          "type": "string"
        },
        {
          "name": "proposalType",
          "type": "uint256"
        },
        {
          "name": "complete",
          "type": "bool"
        },
        {
          "name": "success",
          "type": "bool"
        },
        {
          "name": "lastCalculatedResult",
          "type": "uint256"
        }
      ],
      "payable": false,
      "stateMutability": "view",
      "type": "function"
    },
    {
      "constant": true,
      "inputs": [],
      "name": "name",
      "outputs": [
        {
          "name": "",
          "type": "string"
        }
      ],
      "payable": false,
      "stateMutability": "view",
      "type": "function"
    },
    {
      "constant": false,
      "inputs": [
        {
          "name": "spender",
          "type": "address"
        },
        {
          "name": "value",
          "type": "uint256"
        }
      ],
      "name": "approve",
      "outputs": [
        {
          "name": "",
          "type": "bool"
        }
      ],
      "payable": false,
      "stateMutability": "nonpayable",
      "type": "function"
    },
    {
      "constant": true,
      "inputs": [],
      "name": "orgName",
      "outputs": [
        {
          "name": "",
          "type": "string"
        }
      ],
      "payable": false,
      "stateMutability": "view",
      "type": "function"
    },
    {
      "constant": true,
      "inputs": [],
      "name": "totalSupply",
      "outputs": [
        {
          "name": "",
          "type": "uint256"
        }
      ],
      "payable": false,
      "stateMutability": "view",
      "type": "function"
    },
    {
      "constant": false,
      "inputs": [
        {
          "name": "from",
          "type": "address"
        },
        {
          "name": "to",
          "type": "address"
        },
        {
          "name": "value",
          "type": "uint256"
        }
      ],
      "name": "transferFrom",
      "outputs": [
        {
          "name": "",
          "type": "bool"
        }
      ],
      "payable": false,
      "stateMutability": "nonpayable",
      "type": "function"
    },
    {
      "constant": true,
      "inputs": [
        {
          "name": "",
          "type": "uint256"
        }
      ],
      "name": "trackedAccounts",
      "outputs": [
        {
          "name": "accountAddress",
          "type": "address"
        },
        {
          "name": "accountBalance",
          "type": "uint256"
        }
      ],
      "payable": false,
      "stateMutability": "view",
      "type": "function"
    },
    {
      "constant": true,
      "inputs": [],
      "name": "decimals",
      "outputs": [
        {
          "name": "",
          "type": "uint8"
        }
      ],
      "payable": false,
      "stateMutability": "view",
      "type": "function"
    },
    {
      "constant": false,
      "inputs": [
        {
          "name": "spender",
          "type": "address"
        },
        {
          "name": "addedValue",
          "type": "uint256"
        }
      ],
      "name": "increaseAllowance",
      "outputs": [
        {
          "name": "",
          "type": "bool"
        }
      ],
      "payable": false,
      "stateMutability": "nonpayable",
      "type": "function"
    },
    {
      "constant": true,
      "inputs": [
        {
          "name": "owner",
          "type": "address"
        }
      ],
      "name": "balanceOf",
      "outputs": [
        {
          "name": "",
          "type": "uint256"
        }
      ],
      "payable": false,
      "stateMutability": "view",
      "type": "function"
    },
    {
      "constant": true,
      "inputs": [],
      "name": "symbol",
      "outputs": [
        {
          "name": "",
          "type": "string"
        }
      ],
      "payable": false,
      "stateMutability": "view",
      "type": "function"
    },
    {
      "constant": false,
      "inputs": [
        {
          "name": "spender",
          "type": "address"
        },
        {
          "name": "subtractedValue",
          "type": "uint256"
        }
      ],
      "name": "decreaseAllowance",
      "outputs": [
        {
          "name": "",
          "type": "bool"
        }
      ],
      "payable": false,
      "stateMutability": "nonpayable",
      "type": "function"
    },
    {
      "constant": false,
      "inputs": [
        {
          "name": "to",
          "type": "address"
        },
        {
          "name": "value",
          "type": "uint256"
        }
      ],
      "name": "transfer",
      "outputs": [
        {
          "name": "",
          "type": "bool"
        }
      ],
      "payable": false,
      "stateMutability": "nonpayable",
      "type": "function"
    },
    {
      "constant": true,
      "inputs": [
        {
          "name": "owner",
          "type": "address"
        },
        {
          "name": "spender",
          "type": "address"
        }
      ],
      "name": "allowance",
      "outputs": [
        {
          "name": "",
          "type": "uint256"
        }
      ],
      "payable": false,
      "stateMutability": "view",
      "type": "function"
    },
    {
      "inputs": [
        {
          "name": "_orgName",
          "type": "string"
        }
      ],
      "payable": false,
      "stateMutability": "nonpayable",
      "type": "constructor"
    },
    {
      "anonymous": false,
      "inputs": [
        {
          "indexed": true,
          "name": "from",
          "type": "address"
        },
        {
          "indexed": true,
          "name": "to",
          "type": "address"
        },
        {
          "indexed": false,
          "name": "value",
          "type": "uint256"
        }
      ],
      "name": "Transfer",
      "type": "event"
    },
    {
      "anonymous": false,
      "inputs": [
        {
          "indexed": true,
          "name": "owner",
          "type": "address"
        },
        {
          "indexed": true,
          "name": "spender",
          "type": "address"
        },
        {
          "indexed": false,
          "name": "value",
          "type": "uint256"
        }
      ],
      "name": "Approval",
      "type": "event"
    },
    {
      "constant": false,
      "inputs": [
        {
          "name": "toAddress",
          "type": "address"
        },
        {
          "name": "amount",
          "type": "uint256"
        },
        {
          "name": "metadata",
          "type": "string"
        },
        {
          "name": "proposalType",
          "type": "uint256"
        }
      ],
      "name": "makeProposal",
      "outputs": [],
      "payable": false,
      "stateMutability": "nonpayable",
      "type": "function"
    },
    {
      "constant": false,
      "inputs": [
        {
          "name": "proposalID",
          "type": "uint256"
        },
        {
          "name": "vote",
          "type": "bool"
        }
      ],
      "name": "voteProposal",
      "outputs": [],
      "payable": false,
      "stateMutability": "nonpayable",
      "type": "function"
    },
    {
      "constant": false,
      "inputs": [
        {
          "name": "proposalID",
          "type": "uint256"
        }
      ],
      "name": "countProposal",
      "outputs": [],
      "payable": false,
      "stateMutability": "nonpayable",
      "type": "function"
    },
    {
      "constant": false,
      "inputs": [
        {
          "name": "tokenAmount",
          "type": "uint256"
        }
      ],
      "name": "burnTokens",
      "outputs": [],
      "payable": false,
      "stateMutability": "nonpayable",
      "type": "function"
    },
    {
      "constant": true,
      "inputs": [],
      "name": "getTrackedAccountsLength",
      "outputs": [
        {
          "name": "",
          "type": "uint256"
        }
      ],
      "payable": false,
      "stateMutability": "view",
      "type": "function"
    },
    {
      "constant": true,
      "inputs": [],
      "name": "getTrackedAccounts",
      "outputs": [
        {
          "name": "",
          "type": "address[]"
        },
        {
          "name": "",
          "type": "uint256[]"
        }
      ],
      "payable": false,
      "stateMutability": "view",
      "type": "function"
    }
  ],
  "bytecode": "0x608060405260466006556006546064036007553480156200001f57600080fd5b506040516200305338038062003053833981018060405260208110156200004557600080fd5b8101908080516401000000008111156200005e57600080fd5b828101905060208101848111156200007557600080fd5b81518560018202830111640100000000821117156200009357600080fd5b5050929190505050806040805190810160405280600581526020017f534c49434500000000000000000000000000000000000000000000000000000081525060128260039080519060200190620000ec9291906200064b565b508160049080519060200190620001059291906200064b565b5080600560006101000a81548160ff021916908360ff160217905550505050600081511115156200019e576040517f08c379a00000000000000000000000000000000000000000000000000000000081526004018080602001828103825260198152602001807f4f7267206e616d65206d757374206265206e6f6e656d7074790000000000000081525060200191505060405180910390fd5b8060089080519060200190620001b69291906200064b565b50620001d3336001620001da640100000000026401000000009004565b50620006fa565b620001f7828260016200021b640100000000026401000000009004565b620002178282620004916401000000000262002724176401000000009004565b5050565b600960008473ffffffffffffffffffffffffffffffffffffffff1673ffffffffffffffffffffffffffffffffffffffff16815260200190815260200160002060009054906101000a900460ff161515620003be576001600960008573ffffffffffffffffffffffffffffffffffffffff1673ffffffffffffffffffffffffffffffffffffffff16815260200190815260200160002060006101000a81548160ff021916908315150217905550600b80549050600a60008573ffffffffffffffffffffffffffffffffffffffff1673ffffffffffffffffffffffffffffffffffffffff16815260200190815260200160002081905550600b60408051908101604052808573ffffffffffffffffffffffffffffffffffffffff16815260200160008152509080600181540180825580915050906001820390600052602060002090600202016000909192909190915060008201518160000160006101000a81548173ffffffffffffffffffffffffffffffffffffffff021916908373ffffffffffffffffffffffffffffffffffffffff160217905550602082015181600101555050505b6000600a60008573ffffffffffffffffffffffffffffffffffffffff1673ffffffffffffffffffffffffffffffffffffffff1681526020019081526020016000205490506000600b828154811015156200041457fe5b9060005260206000209060020201905082156200045d576200044f81600101548562000606640100000000026200201e176401000000009004565b81600101819055506200048a565b62000481816001015485620006286401000000000262001fd4176401000000009004565b81600101819055505b5050505050565b600073ffffffffffffffffffffffffffffffffffffffff168273ffffffffffffffffffffffffffffffffffffffff1614151515620004ce57600080fd5b620004f38160025462000606640100000000026200201e179091906401000000009004565b6002819055506200055a816000808573ffffffffffffffffffffffffffffffffffffffff1673ffffffffffffffffffffffffffffffffffffffff1681526020019081526020016000205462000606640100000000026200201e179091906401000000009004565b6000808473ffffffffffffffffffffffffffffffffffffffff1673ffffffffffffffffffffffffffffffffffffffff168152602001908152602001600020819055508173ffffffffffffffffffffffffffffffffffffffff16600073ffffffffffffffffffffffffffffffffffffffff167fddf252ad1be2c89b69c2b068fc378daa952ba7f163c4a11628f55a4df523b3ef836040518082815260200191505060405180910390a35050565b60008082840190508381101515156200061e57600080fd5b8091505092915050565b60008282111515156200063a57600080fd5b600082840390508091505092915050565b828054600181600116156101000203166002900490600052602060002090601f016020900481019282601f106200068e57805160ff1916838001178555620006bf565b82800160010185558215620006bf579182015b82811115620006be578251825591602001919060010190620006a1565b5b509050620006ce9190620006d2565b5090565b620006f791905b80821115620006f3576000816000905550600101620006d9565b5090565b90565b612949806200070a6000396000f3fe608060405260043610610112576000357c0100000000000000000000000000000000000000000000000000000000900463ffffffff168063013cf08b1461011757806306fdde0314610229578063095ea7b3146102b95780631386dc2d1461032c57806313bae74b146103bc57806318160ddd146104b857806323b872dd146104e357806325313a3314610576578063313ce567146105f85780633950935114610629578063593dafd21461069c5780636d1b229d146106c75780636e2401461461070257806370a08231146107b657806395d89b411461081b578063a457c2d7146108ab578063a9059cbb1461091e578063bcfb9b6114610991578063d2bd199d146109d8578063dd62ed3e14610a13575b600080fd5b34801561012357600080fd5b506101506004803603602081101561013a57600080fd5b8101908080359060200190929190505050610a98565b604051808873ffffffffffffffffffffffffffffffffffffffff1673ffffffffffffffffffffffffffffffffffffffff168152602001878152602001806020018681526020018515151515815260200184151515158152602001838152602001828103825287818151815260200191508051906020019080838360005b838110156101e85780820151818401526020810190506101cd565b50505050905090810190601f1680156102155780820380516001836020036101000a031916815260200191505b509850505050505050505060405180910390f35b34801561023557600080fd5b5061023e610bbb565b6040518080602001828103825283818151815260200191508051906020019080838360005b8381101561027e578082015181840152602081019050610263565b50505050905090810190601f1680156102ab5780820380516001836020036101000a031916815260200191505b509250505060405180910390f35b3480156102c557600080fd5b50610312600480360360408110156102dc57600080fd5b81019080803573ffffffffffffffffffffffffffffffffffffffff16906020019092919080359060200190929190505050610c5d565b604051808215151515815260200191505060405180910390f35b34801561033857600080fd5b50610341610d8a565b6040518080602001828103825283818151815260200191508051906020019080838360005b83811015610381578082015181840152602081019050610366565b50505050905090810190601f1680156103ae5780820380516001836020036101000a031916815260200191505b509250505060405180910390f35b3480156103c857600080fd5b506104b6600480360360808110156103df57600080fd5b81019080803573ffffffffffffffffffffffffffffffffffffffff169060200190929190803590602001909291908035906020019064010000000081111561042657600080fd5b82018360208201111561043857600080fd5b8035906020019184600183028401116401000000008311171561045a57600080fd5b91908080601f016020809104026020016040519081016040528093929190818152602001838380828437600081840152601f19601f82011690508083019250505050505050919291929080359060200190929190505050610e28565b005b3480156104c457600080fd5b506104cd610ff1565b6040518082815260200191505060405180910390f35b3480156104ef57600080fd5b5061055c6004803603606081101561050657600080fd5b81019080803573ffffffffffffffffffffffffffffffffffffffff169060200190929190803573ffffffffffffffffffffffffffffffffffffffff16906020019092919080359060200190929190505050610ffb565b604051808215151515815260200191505060405180910390f35b34801561058257600080fd5b506105af6004803603602081101561059957600080fd5b8101908080359060200190929190505050611203565b604051808373ffffffffffffffffffffffffffffffffffffffff1673ffffffffffffffffffffffffffffffffffffffff1681526020018281526020019250505060405180910390f35b34801561060457600080fd5b5061060d611256565b604051808260ff1660ff16815260200191505060405180910390f35b34801561063557600080fd5b506106826004803603604081101561064c57600080fd5b81019080803573ffffffffffffffffffffffffffffffffffffffff1690602001909291908035906020019092919050505061126d565b604051808215151515815260200191505060405180910390f35b3480156106a857600080fd5b506106b16114a4565b6040518082815260200191505060405180910390f35b3480156106d357600080fd5b50610700600480360360208110156106ea57600080fd5b81019080803590602001909291905050506114b1565b005b34801561070e57600080fd5b506107176115aa565b604051808060200180602001838103835285818151815260200191508051906020019060200280838360005b8381101561075e578082015181840152602081019050610743565b50505050905001838103825284818151815260200191508051906020019060200280838360005b838110156107a0578082015181840152602081019050610785565b5050505090500194505050505060405180910390f35b3480156107c257600080fd5b50610805600480360360208110156107d957600080fd5b81019080803573ffffffffffffffffffffffffffffffffffffffff169060200190929190505050611712565b6040518082815260200191505060405180910390f35b34801561082757600080fd5b5061083061175a565b6040518080602001828103825283818151815260200191508051906020019080838360005b83811015610870578082015181840152602081019050610855565b50505050905090810190601f16801561089d5780820380516001836020036101000a031916815260200191505b509250505060405180910390f35b3480156108b757600080fd5b50610904600480360360408110156108ce57600080fd5b81019080803573ffffffffffffffffffffffffffffffffffffffff169060200190929190803590602001909291905050506117fc565b604051808215151515815260200191505060405180910390f35b34801561092a57600080fd5b506109776004803603604081101561094157600080fd5b81019080803573ffffffffffffffffffffffffffffffffffffffff16906020019092919080359060200190929190505050611a33565b604051808215151515815260200191505060405180910390f35b34801561099d57600080fd5b506109d6600480360360408110156109b457600080fd5b8101908080359060200190929190803515159060200190929190505050611a4a565b005b3480156109e457600080fd5b50610a11600480360360208110156109fb57600080fd5b8101908080359060200190929190505050611c76565b005b348015610a1f57600080fd5b50610a8260048036036040811015610a3657600080fd5b81019080803573ffffffffffffffffffffffffffffffffffffffff169060200190929190803573ffffffffffffffffffffffffffffffffffffffff169060200190929190505050611f4d565b6040518082815260200191505060405180910390f35b600c81815481101515610aa757fe5b90600052602060002090600802016000915090508060000160009054906101000a900473ffffffffffffffffffffffffffffffffffffffff1690806001015490806002018054600181600116156101000203166002900480601f016020809104026020016040519081016040528092919081815260200182805460018160011615610100020316600290048015610b7f5780601f10610b5457610100808354040283529160200191610b7f565b820191906000526020600020905b815481529060010190602001808311610b6257829003601f168201915b5050505050908060030154908060040160009054906101000a900460ff16908060040160019054906101000a900460ff16908060050154905087565b606060038054600181600116156101000203166002900480601f016020809104026020016040519081016040528092919081815260200182805460018160011615610100020316600290048015610c535780601f10610c2857610100808354040283529160200191610c53565b820191906000526020600020905b815481529060010190602001808311610c3657829003601f168201915b5050505050905090565b60008073ffffffffffffffffffffffffffffffffffffffff168373ffffffffffffffffffffffffffffffffffffffff1614151515610c9a57600080fd5b81600160003373ffffffffffffffffffffffffffffffffffffffff1673ffffffffffffffffffffffffffffffffffffffff16815260200190815260200160002060008573ffffffffffffffffffffffffffffffffffffffff1673ffffffffffffffffffffffffffffffffffffffff168152602001908152602001600020819055508273ffffffffffffffffffffffffffffffffffffffff163373ffffffffffffffffffffffffffffffffffffffff167f8c5be1e5ebec7d5bd14f71427d1e84f3dd0314c0f7b2291e5b200ac8c7c3b925846040518082815260200191505060405180910390a36001905092915050565b60088054600181600116156101000203166002900480601f016020809104026020016040519081016040528092919081815260200182805460018160011615610100020316600290048015610e205780601f10610df557610100808354040283529160200191610e20565b820191906000526020600020905b815481529060010190602001808311610e0357829003601f168201915b505050505081565b6000610e3333611712565b111515610ea8576040517f08c379a000000000000000000000000000000000000000000000000000000000815260040180806020018281038252601b8152602001807f4d73672073656e646572206d757374206f776e206120736c696365000000000081525060200191505060405180910390fd5b600c60e0604051908101604052808673ffffffffffffffffffffffffffffffffffffffff16815260200185815260200184815260200183815260200160001515815260200160001515815260200160008152509080600181540180825580915050906001820390600052602060002090600802016000909192909190915060008201518160000160006101000a81548173ffffffffffffffffffffffffffffffffffffffff021916908373ffffffffffffffffffffffffffffffffffffffff160217905550602082015181600101556040820151816002019080519060200190610f93929190612878565b506060820151816003015560808201518160040160006101000a81548160ff02191690831515021790555060a08201518160040160016101000a81548160ff02191690831515021790555060c0820151816005015550505050505050565b6000600254905090565b600061108c82600160008773ffffffffffffffffffffffffffffffffffffffff1673ffffffffffffffffffffffffffffffffffffffff16815260200190815260200160002060003373ffffffffffffffffffffffffffffffffffffffff1673ffffffffffffffffffffffffffffffffffffffff16815260200190815260200160002054611fd490919063ffffffff16565b600160008673ffffffffffffffffffffffffffffffffffffffff1673ffffffffffffffffffffffffffffffffffffffff16815260200190815260200160002060003373ffffffffffffffffffffffffffffffffffffffff1673ffffffffffffffffffffffffffffffffffffffff16815260200190815260200160002081905550611117848484611ff6565b3373ffffffffffffffffffffffffffffffffffffffff168473ffffffffffffffffffffffffffffffffffffffff167f8c5be1e5ebec7d5bd14f71427d1e84f3dd0314c0f7b2291e5b200ac8c7c3b925600160008873ffffffffffffffffffffffffffffffffffffffff1673ffffffffffffffffffffffffffffffffffffffff16815260200190815260200160002060003373ffffffffffffffffffffffffffffffffffffffff1673ffffffffffffffffffffffffffffffffffffffff168152602001908152602001600020546040518082815260200191505060405180910390a3600190509392505050565b600b8181548110151561121257fe5b90600052602060002090600202016000915090508060000160009054906101000a900473ffffffffffffffffffffffffffffffffffffffff16908060010154905082565b6000600560009054906101000a900460ff16905090565b60008073ffffffffffffffffffffffffffffffffffffffff168373ffffffffffffffffffffffffffffffffffffffff16141515156112aa57600080fd5b61133982600160003373ffffffffffffffffffffffffffffffffffffffff1673ffffffffffffffffffffffffffffffffffffffff16815260200190815260200160002060008673ffffffffffffffffffffffffffffffffffffffff1673ffffffffffffffffffffffffffffffffffffffff1681526020019081526020016000205461201e90919063ffffffff16565b600160003373ffffffffffffffffffffffffffffffffffffffff1673ffffffffffffffffffffffffffffffffffffffff16815260200190815260200160002060008573ffffffffffffffffffffffffffffffffffffffff1673ffffffffffffffffffffffffffffffffffffffff168152602001908152602001600020819055508273ffffffffffffffffffffffffffffffffffffffff163373ffffffffffffffffffffffffffffffffffffffff167f8c5be1e5ebec7d5bd14f71427d1e84f3dd0314c0f7b2291e5b200ac8c7c3b925600160003373ffffffffffffffffffffffffffffffffffffffff1673ffffffffffffffffffffffffffffffffffffffff16815260200190815260200160002060008773ffffffffffffffffffffffffffffffffffffffff1673ffffffffffffffffffffffffffffffffffffffff168152602001908152602001600020546040518082815260200191505060405180910390a36001905092915050565b6000600b80549050905090565b60006114bc33611712565b111515611531576040517f08c379a000000000000000000000000000000000000000000000000000000000815260040180806020018281038252601b8152602001807f4d73672073656e646572206d757374206f776e206120736c696365000000000081525060200191505060405180910390fd5b600015156115a7576040517f08c379a00000000000000000000000000000000000000000000000000000000081526004018080602001828103825260138152602001807f4e6f742079657420696d706c656d656e7465640000000000000000000000000081525060200191505060405180910390fd5b50565b60608060006115b76114a4565b90506060816040519080825280602002602001820160405280156115ea5781602001602082028038833980820191505090505b50905060608260405190808252806020026020018201604052801561161e5781602001602082028038833980820191505090505b50905060008090505b8381101561170457600b8181548110151561163e57fe5b906000526020600020906002020160000160009054906101000a900473ffffffffffffffffffffffffffffffffffffffff16838281518110151561167e57fe5b9060200190602002019073ffffffffffffffffffffffffffffffffffffffff16908173ffffffffffffffffffffffffffffffffffffffff1681525050600b818154811015156116c957fe5b90600052602060002090600202016001015482828151811015156116e957fe5b90602001906020020181815250508080600101915050611627565b508181945094505050509091565b60008060008373ffffffffffffffffffffffffffffffffffffffff1673ffffffffffffffffffffffffffffffffffffffff168152602001908152602001600020549050919050565b606060048054600181600116156101000203166002900480601f0160208091040260200160405190810160405280929190818152602001828054600181600116156101000203166002900480156117f25780601f106117c7576101008083540402835291602001916117f2565b820191906000526020600020905b8154815290600101906020018083116117d557829003601f168201915b5050505050905090565b60008073ffffffffffffffffffffffffffffffffffffffff168373ffffffffffffffffffffffffffffffffffffffff161415151561183957600080fd5b6118c882600160003373ffffffffffffffffffffffffffffffffffffffff1673ffffffffffffffffffffffffffffffffffffffff16815260200190815260200160002060008673ffffffffffffffffffffffffffffffffffffffff1673ffffffffffffffffffffffffffffffffffffffff16815260200190815260200160002054611fd490919063ffffffff16565b600160003373ffffffffffffffffffffffffffffffffffffffff1673ffffffffffffffffffffffffffffffffffffffff16815260200190815260200160002060008573ffffffffffffffffffffffffffffffffffffffff1673ffffffffffffffffffffffffffffffffffffffff168152602001908152602001600020819055508273ffffffffffffffffffffffffffffffffffffffff163373ffffffffffffffffffffffffffffffffffffffff167f8c5be1e5ebec7d5bd14f71427d1e84f3dd0314c0f7b2291e5b200ac8c7c3b925600160003373ffffffffffffffffffffffffffffffffffffffff1673ffffffffffffffffffffffffffffffffffffffff16815260200190815260200160002060008773ffffffffffffffffffffffffffffffffffffffff1673ffffffffffffffffffffffffffffffffffffffff168152602001908152602001600020546040518082815260200191505060405180910390a36001905092915050565b6000611a40338484611ff6565b6001905092915050565b6000611a5533611712565b111515611aca576040517f08c379a000000000000000000000000000000000000000000000000000000000815260040180806020018281038252601b8152602001807f4d73672073656e646572206d757374206f776e206120736c696365000000000081525060200191505060405180910390fd5b6000600c83815481101515611adb57fe5b90600052602060002090600802019050600015158160060160003373ffffffffffffffffffffffffffffffffffffffff1673ffffffffffffffffffffffffffffffffffffffff16815260200190815260200160002060009054906101000a900460ff161515141515611bb5576040517f08c379a00000000000000000000000000000000000000000000000000000000081526004018080602001828103825260138152602001807f4572726f7220616c726561647920766f7465640000000000000000000000000081525060200191505060405180910390fd5b60018160060160003373ffffffffffffffffffffffffffffffffffffffff1673ffffffffffffffffffffffffffffffffffffffff16815260200190815260200160002060006101000a81548160ff021916908315150217905550818160070160003373ffffffffffffffffffffffffffffffffffffffff1673ffffffffffffffffffffffffffffffffffffffff16815260200190815260200160002060006101000a81548160ff021916908315150217905550611c7183611c76565b505050565b6000611c8133611712565b111515611cf6576040517f08c379a000000000000000000000000000000000000000000000000000000000815260040180806020018281038252601b8152602001807f4d73672073656e646572206d757374206f776e206120736c696365000000000081525060200191505060405180910390fd5b6000600c82815481101515611d0757fe5b90600052602060002090600802019050600015158160040160009054906101000a900460ff161515141515611da4576040517f08c379a00000000000000000000000000000000000000000000000000000000081526004018080602001828103825260198152602001807f50726f706f73616c20616c726561647920636f6d706c6574650000000000000081525060200191505060405180910390fd5b6000809050600080905060008090505b600b80549050811015611ef1576000600b82815481101515611dd257fe5b9060005260206000209060020201905060008160000160009054906101000a900473ffffffffffffffffffffffffffffffffffffffff1690508560060160008273ffffffffffffffffffffffffffffffffffffffff1673ffffffffffffffffffffffffffffffffffffffff16815260200190815260200160002060009054906101000a900460ff1615611ee25760008660070160008373ffffffffffffffffffffffffffffffffffffffff1673ffffffffffffffffffffffffffffffffffffffff16815260200190815260200160002060009054906101000a900460ff1690506000836001015490508115611ed257611ecb878261201e565b9650611edf565b611edc868261201e565b95505b50505b50508080600101915050611db4565b506000611efc610ff1565b90506000611f0a848361203f565b90506000611f18848461203f565b905060065482101515611f2f57611f2e87612069565b5b60075481101515611f4457611f438761210d565b5b50505050505050565b6000600160008473ffffffffffffffffffffffffffffffffffffffff1673ffffffffffffffffffffffffffffffffffffffff16815260200190815260200160002060008373ffffffffffffffffffffffffffffffffffffffff1673ffffffffffffffffffffffffffffffffffffffff16815260200190815260200160002054905092915050565b6000828211151515611fe557600080fd5b600082840390508091505092915050565b6120028382600061216c565b61200e8282600161216c565b6120198383836123b2565b505050565b600080828401905083811015151561203557600080fd5b8091505092915050565b6000808211151561204f57600080fd5b6000828481151561205c57fe5b0490508091505092915050565b6000600c8281548110151561207a57fe5b9060005260206000209060080201905060018160040160006101000a81548160ff02191690831515021790555060018160040160016101000a81548160ff0219169083151502179055506000816003015414156120db576120da8261257e565b5b6001816003015414156120f2576120f1826125d5565b5b6002816003015414156121095761210882612670565b5b5050565b6000600c8281548110151561211e57fe5b9060005260206000209060080201905060018160040160006101000a81548160ff02191690831515021790555060008160040160016101000a81548160ff0219169083151502179055505050565b600960008473ffffffffffffffffffffffffffffffffffffffff1673ffffffffffffffffffffffffffffffffffffffff16815260200190815260200160002060009054906101000a900460ff16151561230e576001600960008573ffffffffffffffffffffffffffffffffffffffff1673ffffffffffffffffffffffffffffffffffffffff16815260200190815260200160002060006101000a81548160ff021916908315150217905550600b80549050600a60008573ffffffffffffffffffffffffffffffffffffffff1673ffffffffffffffffffffffffffffffffffffffff16815260200190815260200160002081905550600b60408051908101604052808573ffffffffffffffffffffffffffffffffffffffff16815260200160008152509080600181540180825580915050906001820390600052602060002090600202016000909192909190915060008201518160000160006101000a81548173ffffffffffffffffffffffffffffffffffffffff021916908373ffffffffffffffffffffffffffffffffffffffff160217905550602082015181600101555050505b6000600a60008573ffffffffffffffffffffffffffffffffffffffff1673ffffffffffffffffffffffffffffffffffffffff1681526020019081526020016000205490506000600b8281548110151561236357fe5b9060005260206000209060020201905082156123945761238781600101548561201e565b81600101819055506123ab565b6123a2816001015485611fd4565b81600101819055505b5050505050565b600073ffffffffffffffffffffffffffffffffffffffff168273ffffffffffffffffffffffffffffffffffffffff16141515156123ee57600080fd5b61243f816000808673ffffffffffffffffffffffffffffffffffffffff1673ffffffffffffffffffffffffffffffffffffffff16815260200190815260200160002054611fd490919063ffffffff16565b6000808573ffffffffffffffffffffffffffffffffffffffff1673ffffffffffffffffffffffffffffffffffffffff168152602001908152602001600020819055506124d2816000808573ffffffffffffffffffffffffffffffffffffffff1673ffffffffffffffffffffffffffffffffffffffff1681526020019081526020016000205461201e90919063ffffffff16565b6000808473ffffffffffffffffffffffffffffffffffffffff1673ffffffffffffffffffffffffffffffffffffffff168152602001908152602001600020819055508173ffffffffffffffffffffffffffffffffffffffff168373ffffffffffffffffffffffffffffffffffffffff167fddf252ad1be2c89b69c2b068fc378daa952ba7f163c4a11628f55a4df523b3ef836040518082815260200191505060405180910390a3505050565b6000600c8281548110151561258f57fe5b906000526020600020906008020190506125d18160000160009054906101000a900473ffffffffffffffffffffffffffffffffffffffff16826001015461270a565b5050565b6000600c828154811015156125e657fe5b906000526020600020906008020190506000151561266c576040517f08c379a000000000000000000000000000000000000000000000000000000000815260040180806020018281038252601d8152602001807f4e6f742079657420696d706c656d656e746564206469766964656e647300000081525060200191505060405180910390fd5b5050565b6000600c8281548110151561268157fe5b9060005260206000209060080201905060008160000160009054906101000a900473ffffffffffffffffffffffffffffffffffffffff1690508073ffffffffffffffffffffffffffffffffffffffff166108fc83600101549081150290604051600060405180830381858888f19350505050158015612704573d6000803e3d6000fd5b50505050565b6127168282600161216c565b6127208282612724565b5050565b600073ffffffffffffffffffffffffffffffffffffffff168273ffffffffffffffffffffffffffffffffffffffff161415151561276057600080fd5b6127758160025461201e90919063ffffffff16565b6002819055506127cc816000808573ffffffffffffffffffffffffffffffffffffffff1673ffffffffffffffffffffffffffffffffffffffff1681526020019081526020016000205461201e90919063ffffffff16565b6000808473ffffffffffffffffffffffffffffffffffffffff1673ffffffffffffffffffffffffffffffffffffffff168152602001908152602001600020819055508173ffffffffffffffffffffffffffffffffffffffff16600073ffffffffffffffffffffffffffffffffffffffff167fddf252ad1be2c89b69c2b068fc378daa952ba7f163c4a11628f55a4df523b3ef836040518082815260200191505060405180910390a35050565b828054600181600116156101000203166002900490600052602060002090601f016020900481019282601f106128b957805160ff19168380011785556128e7565b828001600101855582156128e7579182015b828111156128e65782518255916020019190600101906128cb565b5b5090506128f491906128f8565b5090565b61291a91905b808211156129165760008160009055506001016128fe565b5090565b9056fea165627a7a723058209c9766ed233110753d44de18aa868cc4253a0a7128ad1dbb39e44d16b4870f120029",
  "source": "pragma solidity ^0.5.0;\n\nimport \"openzeppelin-solidity/contracts/token/ERC20/ERC20.sol\";\nimport \"openzeppelin-solidity/contracts/token/ERC20/ERC20Detailed.sol\";\n\n/**\n * The PieOrg contract does it all\n */\ncontract PieOrg is ERC20, ERC20Detailed {\n    uint yesThreshold = 70;\n    uint noThreshold = 100 - yesThreshold;\n\n    string public orgName;\n\n    mapping (address => bool) private _accountIsTracked;\n    mapping (address => uint) private _trackedAccountIndex;\n\n    struct TrackedAccount {\n        address accountAddress;\n        uint accountBalance;\n    }\n\n    struct Proposal {\n        address toAddress;\n        uint amount;\n        string metadata;\n        uint proposalType;\n        bool complete;\n        bool success;\n        uint lastCalculatedResult;\n        mapping (address => bool) accountHasVoted;\n        mapping (address => bool) accountVote;\n    }\n\n    TrackedAccount[] public trackedAccounts;\n    Proposal[] public proposals;\n\n    constructor(string memory _orgName) public ERC20Detailed(_orgName, \"SLICE\", 18) {\n        require(bytes(_orgName).length > 0, \"Org name must be nonempty\");\n        orgName = _orgName;\n        _mint(msg.sender, 1);\n    }\n\n    modifier onlyMember() {\n        require(balanceOf(msg.sender) > 0, \"Msg sender must own a slice\");\n        _;\n    }\n\n    function makeProposal(address toAddress, uint256 amount, string memory metadata, uint proposalType) public onlyMember {\n        proposals.push(Proposal(toAddress, amount, metadata, proposalType, false, false, 0));\n    }\n\n    function voteProposal(uint256 proposalID, bool vote) public onlyMember {\n        Proposal storage proposal = proposals[proposalID];\n        require(proposal.accountHasVoted[msg.sender] == false, \"Error already voted\");\n        proposal.accountHasVoted[msg.sender] = true;\n        proposal.accountVote[msg.sender] = vote;\n        countProposal(proposalID);\n    }\n\n    function countProposal(uint256 proposalID) public onlyMember {\n        Proposal storage proposal = proposals[proposalID];\n        require(proposal.complete == false, \"Proposal already complete\");\n        uint yesVotes = 0;\n        uint noVotes = 0;\n        for (uint i = 0; i < trackedAccounts.length; i++) {\n            TrackedAccount storage trackedAccount = trackedAccounts[i];\n            address accountAddress = trackedAccount.accountAddress;\n            if (proposal.accountHasVoted[accountAddress]) {\n                bool vote = proposal.accountVote[accountAddress];\n                uint voteShares = trackedAccount.accountBalance;\n                if(vote) {\n                    yesVotes = SafeMath.add(yesVotes, voteShares);\n                }\n                else {\n                    noVotes = SafeMath.add(noVotes, voteShares);\n                }\n            }\n        }\n        uint totalVotes = totalSupply();\n        uint yesPercent = SafeMath.div(yesVotes, totalVotes);\n        uint noPercent = SafeMath.div(noVotes, totalVotes);\n        if (yesPercent >= yesThreshold) {\n            _succeedProposal(proposalID);\n        }\n        if (noPercent >= noThreshold) {\n            _failProposal(proposalID);\n        }\n    }\n\n    function _succeedProposal(uint256 proposalID) private {\n        Proposal storage proposal = proposals[proposalID];\n        proposal.complete = true;\n        proposal.success = true;\n        if(proposal.proposalType == 0) {\n            _processProposalMint(proposalID);\n        }\n        if(proposal.proposalType == 1) {\n            _processProposalDividend(proposalID);\n        }\n        if(proposal.proposalType == 2) {\n            _processProposalSpend(proposalID);\n        }\n    }\n\n    function _processProposalMint(uint256 proposalID) private {\n        Proposal storage proposal = proposals[proposalID];\n        _mint(proposal.toAddress, proposal.amount);\n    }\n\n    function _processProposalDividend(uint256 proposalID) private {\n        Proposal storage proposal = proposals[proposalID];\n        require(false, \"Not yet implemented dividends\");\n        //TODO...\n    }\n\n    //re-entrancy protection needed here?\n    function _processProposalSpend(uint256 proposalID) private {\n        Proposal storage proposal = proposals[proposalID];\n        address payable payableAddress = address(uint160(proposal.toAddress));\n        payableAddress.transfer(proposal.amount);\n    }\n\n    function _failProposal(uint256 proposalID) private {\n        Proposal storage proposal = proposals[proposalID];\n        proposal.complete = true;\n        proposal.success = false;\n    }\n\n    function burnTokens(uint256 tokenAmount) public onlyMember {\n        require(false, \"Not yet implemented\");\n    }\n\n    function getTrackedAccountsLength() public view returns (uint) {\n        return trackedAccounts.length;\n    }\n\n    function getTrackedAccounts() public view returns(address[] memory, uint[] memory) {\n        uint allAccountsLength = getTrackedAccountsLength();\n        address[] memory allAccountAddresses = new address[](allAccountsLength);\n        uint[] memory allAccountBalances = new uint[](allAccountsLength);\n        for (uint i = 0; i < allAccountsLength; i++) {\n            allAccountAddresses[i] = trackedAccounts[i].accountAddress;\n            allAccountBalances[i] = trackedAccounts[i].accountBalance;\n        }\n        return (allAccountAddresses, allAccountBalances);\n    }\n\n    function _mint(address account, uint256 value) internal {\n        _trackAccount(account, value, true);\n        super._mint(account, value);\n    }\n\n    function _trackAccount(address account, uint256 value, bool sign) internal {\n        if(!_accountIsTracked[account]) {\n            _accountIsTracked[account] = true;\n            _trackedAccountIndex[account] = trackedAccounts.length;\n            trackedAccounts.push(TrackedAccount(account, 0));\n        }\n        uint index = _trackedAccountIndex[account];\n        TrackedAccount storage trackedAccount = trackedAccounts[index];\n        if (sign) {\n            trackedAccount.accountBalance = SafeMath.add(trackedAccount.accountBalance, value);\n        }\n        else {\n            trackedAccount.accountBalance = SafeMath.sub(trackedAccount.accountBalance, value);\n\n        }\n    }\n\n    function _transfer(address from, address to, uint256 value) internal {\n        _trackAccount(from, value, false);\n        _trackAccount(to, value, true);\n        super._transfer(from, to, value);\n    }\n\n}\n",
  "sourcePath": "/Users/theo/dev/thlicing-pie/blockchain/contracts/PieOrg.sol",
  "compiler": {
    "name": "solc",
    "version": "0.5.0+commit.1d4f565a.Emscripten.clang"
  },
  "schemaVersion": "3.0.9",
  "updatedAt": "2019-05-19T00:15:32.668Z",
  "devdoc": {
    "methods": {
      "allowance(address,address)": {
        "details": "Function to check the amount of tokens that an owner allowed to a spender.",
        "params": {
          "owner": "address The address which owns the funds.",
          "spender": "address The address which will spend the funds."
        },
        "return": "A uint256 specifying the amount of tokens still available for the spender."
      },
      "approve(address,uint256)": {
        "details": "Approve the passed address to spend the specified amount of tokens on behalf of msg.sender. Beware that changing an allowance with this method brings the risk that someone may use both the old and the new allowance by unfortunate transaction ordering. One possible solution to mitigate this race condition is to first reduce the spender's allowance to 0 and set the desired value afterwards: https://github.com/ethereum/EIPs/issues/20#issuecomment-263524729",
        "params": {
          "spender": "The address which will spend the funds.",
          "value": "The amount of tokens to be spent."
        }
      },
      "balanceOf(address)": {
        "details": "Gets the balance of the specified address.",
        "params": {
          "owner": "The address to query the balance of."
        },
        "return": "An uint256 representing the amount owned by the passed address."
      },
      "decimals()": {
        "return": "the number of decimals of the token."
      },
      "decreaseAllowance(address,uint256)": {
        "details": "Decrease the amount of tokens that an owner allowed to a spender. approve should be called when allowed_[_spender] == 0. To decrement allowed value is better to use this function to avoid 2 calls (and wait until the first transaction is mined) From MonolithDAO Token.sol Emits an Approval event.",
        "params": {
          "spender": "The address which will spend the funds.",
          "subtractedValue": "The amount of tokens to decrease the allowance by."
        }
      },
      "increaseAllowance(address,uint256)": {
        "details": "Increase the amount of tokens that an owner allowed to a spender. approve should be called when allowed_[_spender] == 0. To increment allowed value is better to use this function to avoid 2 calls (and wait until the first transaction is mined) From MonolithDAO Token.sol Emits an Approval event.",
        "params": {
          "addedValue": "The amount of tokens to increase the allowance by.",
          "spender": "The address which will spend the funds."
        }
      },
      "name()": {
        "return": "the name of the token."
      },
      "symbol()": {
        "return": "the symbol of the token."
      },
      "totalSupply()": {
        "details": "Total number of tokens in existence"
      },
      "transfer(address,uint256)": {
        "details": "Transfer token for a specified address",
        "params": {
          "to": "The address to transfer to.",
          "value": "The amount to be transferred."
        }
      },
      "transferFrom(address,address,uint256)": {
        "details": "Transfer tokens from one address to another. Note that while this function emits an Approval event, this is not required as per the specification, and other compliant implementations may not emit the event.",
        "params": {
          "from": "address The address which you want to send tokens from",
          "to": "address The address which you want to transfer to",
          "value": "uint256 the amount of tokens to be transferred"
        }
      }
    }
  },
  "userdoc": {
    "methods": {},
    "notice": "The PieOrg contract does it all"
  }
}