{
  "contractName": "PieOrg",
  "abi": [
    {
      "constant": true,
      "inputs": [
        {
          "name": "",
          "type": "uint256"
        }
      ],
      "name": "proposals",
      "outputs": [
        {
          "name": "toAddress",
          "type": "address"
        },
        {
          "name": "amount",
          "type": "uint256"
        },
        {
          "name": "metadata",
          "type": "string"
        },
        {
          "name": "proposalType",
          "type": "uint256"
        },
        {
          "name": "complete",
          "type": "bool"
        },
        {
          "name": "success",
          "type": "bool"
        },
        {
          "name": "lastCalculatedResult",
          "type": "uint256"
        }
      ],
      "payable": false,
      "stateMutability": "view",
      "type": "function"
    },
    {
      "constant": true,
      "inputs": [],
      "name": "name",
      "outputs": [
        {
          "name": "",
          "type": "string"
        }
      ],
      "payable": false,
      "stateMutability": "view",
      "type": "function"
    },
    {
      "constant": false,
      "inputs": [
        {
          "name": "spender",
          "type": "address"
        },
        {
          "name": "value",
          "type": "uint256"
        }
      ],
      "name": "approve",
      "outputs": [
        {
          "name": "",
          "type": "bool"
        }
      ],
      "payable": false,
      "stateMutability": "nonpayable",
      "type": "function"
    },
    {
      "constant": true,
      "inputs": [],
      "name": "orgName",
      "outputs": [
        {
          "name": "",
          "type": "string"
        }
      ],
      "payable": false,
      "stateMutability": "view",
      "type": "function"
    },
    {
      "constant": true,
      "inputs": [],
      "name": "totalSupply",
      "outputs": [
        {
          "name": "",
          "type": "uint256"
        }
      ],
      "payable": false,
      "stateMutability": "view",
      "type": "function"
    },
    {
      "constant": false,
      "inputs": [
        {
          "name": "from",
          "type": "address"
        },
        {
          "name": "to",
          "type": "address"
        },
        {
          "name": "value",
          "type": "uint256"
        }
      ],
      "name": "transferFrom",
      "outputs": [
        {
          "name": "",
          "type": "bool"
        }
      ],
      "payable": false,
      "stateMutability": "nonpayable",
      "type": "function"
    },
    {
      "constant": true,
      "inputs": [
        {
          "name": "",
          "type": "uint256"
        }
      ],
      "name": "trackedAccounts",
      "outputs": [
        {
          "name": "accountAddress",
          "type": "address"
        },
        {
          "name": "accountBalance",
          "type": "uint256"
        }
      ],
      "payable": false,
      "stateMutability": "view",
      "type": "function"
    },
    {
      "constant": true,
      "inputs": [],
      "name": "decimals",
      "outputs": [
        {
          "name": "",
          "type": "uint8"
        }
      ],
      "payable": false,
      "stateMutability": "view",
      "type": "function"
    },
    {
      "constant": false,
      "inputs": [
        {
          "name": "spender",
          "type": "address"
        },
        {
          "name": "addedValue",
          "type": "uint256"
        }
      ],
      "name": "increaseAllowance",
      "outputs": [
        {
          "name": "",
          "type": "bool"
        }
      ],
      "payable": false,
      "stateMutability": "nonpayable",
      "type": "function"
    },
    {
      "constant": true,
      "inputs": [
        {
          "name": "owner",
          "type": "address"
        }
      ],
      "name": "balanceOf",
      "outputs": [
        {
          "name": "",
          "type": "uint256"
        }
      ],
      "payable": false,
      "stateMutability": "view",
      "type": "function"
    },
    {
      "constant": true,
      "inputs": [],
      "name": "symbol",
      "outputs": [
        {
          "name": "",
          "type": "string"
        }
      ],
      "payable": false,
      "stateMutability": "view",
      "type": "function"
    },
    {
      "constant": false,
      "inputs": [
        {
          "name": "spender",
          "type": "address"
        },
        {
          "name": "subtractedValue",
          "type": "uint256"
        }
      ],
      "name": "decreaseAllowance",
      "outputs": [
        {
          "name": "",
          "type": "bool"
        }
      ],
      "payable": false,
      "stateMutability": "nonpayable",
      "type": "function"
    },
    {
      "constant": false,
      "inputs": [
        {
          "name": "to",
          "type": "address"
        },
        {
          "name": "value",
          "type": "uint256"
        }
      ],
      "name": "transfer",
      "outputs": [
        {
          "name": "",
          "type": "bool"
        }
      ],
      "payable": false,
      "stateMutability": "nonpayable",
      "type": "function"
    },
    {
      "constant": true,
      "inputs": [
        {
          "name": "owner",
          "type": "address"
        },
        {
          "name": "spender",
          "type": "address"
        }
      ],
      "name": "allowance",
      "outputs": [
        {
          "name": "",
          "type": "uint256"
        }
      ],
      "payable": false,
      "stateMutability": "view",
      "type": "function"
    },
    {
      "inputs": [
        {
          "name": "_orgName",
          "type": "string"
        }
      ],
      "payable": false,
      "stateMutability": "nonpayable",
      "type": "constructor"
    },
    {
      "anonymous": false,
      "inputs": [
        {
          "indexed": true,
          "name": "from",
          "type": "address"
        },
        {
          "indexed": true,
          "name": "to",
          "type": "address"
        },
        {
          "indexed": false,
          "name": "value",
          "type": "uint256"
        }
      ],
      "name": "Transfer",
      "type": "event"
    },
    {
      "anonymous": false,
      "inputs": [
        {
          "indexed": true,
          "name": "owner",
          "type": "address"
        },
        {
          "indexed": true,
          "name": "spender",
          "type": "address"
        },
        {
          "indexed": false,
          "name": "value",
          "type": "uint256"
        }
      ],
      "name": "Approval",
      "type": "event"
    },
    {
      "constant": false,
      "inputs": [
        {
          "name": "toAddress",
          "type": "address"
        },
        {
          "name": "amount",
          "type": "uint256"
        },
        {
          "name": "metadata",
          "type": "string"
        },
        {
          "name": "proposalType",
          "type": "uint256"
        }
      ],
      "name": "makeProposal",
      "outputs": [
        {
          "name": "",
          "type": "uint256"
        }
      ],
      "payable": false,
      "stateMutability": "nonpayable",
      "type": "function"
    },
    {
      "constant": false,
      "inputs": [
        {
          "name": "proposalID",
          "type": "uint256"
        },
        {
          "name": "vote",
          "type": "bool"
        }
      ],
      "name": "voteProposal",
      "outputs": [],
      "payable": false,
      "stateMutability": "nonpayable",
      "type": "function"
    },
    {
      "constant": false,
      "inputs": [
        {
          "name": "proposalID",
          "type": "uint256"
        }
      ],
      "name": "countProposal",
      "outputs": [],
      "payable": false,
      "stateMutability": "nonpayable",
      "type": "function"
    },
    {
      "constant": false,
      "inputs": [
        {
          "name": "tokenAmount",
          "type": "uint256"
        }
      ],
      "name": "burnTokens",
      "outputs": [],
      "payable": false,
      "stateMutability": "nonpayable",
      "type": "function"
    },
    {
      "constant": true,
      "inputs": [],
      "name": "getTrackedAccountsLength",
      "outputs": [
        {
          "name": "",
          "type": "uint256"
        }
      ],
      "payable": false,
      "stateMutability": "view",
      "type": "function"
    },
    {
      "constant": true,
      "inputs": [],
      "name": "getProposalsLength",
      "outputs": [
        {
          "name": "",
          "type": "uint256"
        },
        {
          "name": "",
          "type": "uint256[]"
        }
      ],
      "payable": false,
      "stateMutability": "view",
      "type": "function"
    },
    {
      "constant": true,
      "inputs": [],
      "name": "getTrackedAccounts",
      "outputs": [
        {
          "name": "",
          "type": "address[]"
        },
        {
          "name": "",
          "type": "uint256[]"
        }
      ],
      "payable": false,
      "stateMutability": "view",
      "type": "function"
    },
    {
      "constant": true,
      "inputs": [],
      "name": "getProposals",
      "outputs": [
        {
          "name": "",
          "type": "address[]"
        },
        {
          "name": "",
          "type": "uint256[]"
        },
        {
          "name": "",
          "type": "uint256[]"
        },
        {
          "name": "",
          "type": "bool[]"
        },
        {
          "name": "",
          "type": "bool[]"
        },
        {
          "name": "",
          "type": "uint256[]"
        }
      ],
      "payable": false,
      "stateMutability": "view",
      "type": "function"
    }
  ],
  "bytecode": "0x608060405260466006556006546064036007553480156200001f57600080fd5b50604051620037be380380620037be833981018060405260208110156200004557600080fd5b8101908080516401000000008111156200005e57600080fd5b828101905060208101848111156200007557600080fd5b81518560018202830111640100000000821117156200009357600080fd5b5050929190505050806040805190810160405280600581526020017f534c49434500000000000000000000000000000000000000000000000000000081525060128260039080519060200190620000ec9291906200064b565b508160049080519060200190620001059291906200064b565b5080600560006101000a81548160ff021916908360ff160217905550505050600081511115156200019e576040517f08c379a00000000000000000000000000000000000000000000000000000000081526004018080602001828103825260198152602001807f4f7267206e616d65206d757374206265206e6f6e656d7074790000000000000081525060200191505060405180910390fd5b8060089080519060200190620001b69291906200064b565b50620001d3336001620001da640100000000026401000000009004565b50620006fa565b620001f7828260016200021b640100000000026401000000009004565b620002178282620004916401000000000262002e8f176401000000009004565b5050565b600960008473ffffffffffffffffffffffffffffffffffffffff1673ffffffffffffffffffffffffffffffffffffffff16815260200190815260200160002060009054906101000a900460ff161515620003be576001600960008573ffffffffffffffffffffffffffffffffffffffff1673ffffffffffffffffffffffffffffffffffffffff16815260200190815260200160002060006101000a81548160ff021916908315150217905550600b80549050600a60008573ffffffffffffffffffffffffffffffffffffffff1673ffffffffffffffffffffffffffffffffffffffff16815260200190815260200160002081905550600b60408051908101604052808573ffffffffffffffffffffffffffffffffffffffff16815260200160008152509080600181540180825580915050906001820390600052602060002090600202016000909192909190915060008201518160000160006101000a81548173ffffffffffffffffffffffffffffffffffffffff021916908373ffffffffffffffffffffffffffffffffffffffff160217905550602082015181600101555050505b6000600a60008573ffffffffffffffffffffffffffffffffffffffff1673ffffffffffffffffffffffffffffffffffffffff1681526020019081526020016000205490506000600b828154811015156200041457fe5b9060005260206000209060020201905082156200045d576200044f816001015485620006066401000000000262002789176401000000009004565b81600101819055506200048a565b6200048181600101548562000628640100000000026200273f176401000000009004565b81600101819055505b5050505050565b600073ffffffffffffffffffffffffffffffffffffffff168273ffffffffffffffffffffffffffffffffffffffff1614151515620004ce57600080fd5b620004f381600254620006066401000000000262002789179091906401000000009004565b6002819055506200055a816000808573ffffffffffffffffffffffffffffffffffffffff1673ffffffffffffffffffffffffffffffffffffffff16815260200190815260200160002054620006066401000000000262002789179091906401000000009004565b6000808473ffffffffffffffffffffffffffffffffffffffff1673ffffffffffffffffffffffffffffffffffffffff168152602001908152602001600020819055508173ffffffffffffffffffffffffffffffffffffffff16600073ffffffffffffffffffffffffffffffffffffffff167fddf252ad1be2c89b69c2b068fc378daa952ba7f163c4a11628f55a4df523b3ef836040518082815260200191505060405180910390a35050565b60008082840190508381101515156200061e57600080fd5b8091505092915050565b60008282111515156200063a57600080fd5b600082840390508091505092915050565b828054600181600116156101000203166002900490600052602060002090601f016020900481019282601f106200068e57805160ff1916838001178555620006bf565b82800160010185558215620006bf579182015b82811115620006be578251825591602001919060010190620006a1565b5b509050620006ce9190620006d2565b5090565b620006f791905b80821115620006f3576000816000905550600101620006d9565b5090565b90565b6130b4806200070a6000396000f3fe608060405260043610610128576000357c0100000000000000000000000000000000000000000000000000000000900463ffffffff168063013cf08b1461012d57806306fdde0314610238578063095ea7b3146102c85780631386dc2d1461033b57806313bae74b146103cb57806318160ddd146104db57806323b872dd1461050657806325313a3314610599578063313ce5671461061b578063395093511461064c578063593dafd2146106bf57806362564c48146106ea5780636d1b229d146108be5780636e240146146108f957806370a08231146109ad57806395d89b4114610a12578063a457c2d714610aa2578063a9059cbb14610b15578063bc378a7314610b88578063bcfb9b6114610bb3578063d2bd199d14610bfa578063dd62ed3e14610c35575b600080fd5b34801561013957600080fd5b506101666004803603602081101561015057600080fd5b8101908080359060200190929190505050610cba565b604051808773ffffffffffffffffffffffffffffffffffffffff1673ffffffffffffffffffffffffffffffffffffffff168152602001868152602001806020018581526020018415151515815260200183151515158152602001828103825286818151815260200191508051906020019080838360005b838110156101f85780820151818401526020810190506101dd565b50505050905090810190601f1680156102255780820380516001836020036101000a031916815260200191505b5097505050505050505060405180910390f35b34801561024457600080fd5b5061024d610dd7565b6040518080602001828103825283818151815260200191508051906020019080838360005b8381101561028d578082015181840152602081019050610272565b50505050905090810190601f1680156102ba5780820380516001836020036101000a031916815260200191505b509250505060405180910390f35b3480156102d457600080fd5b50610321600480360360408110156102eb57600080fd5b81019080803573ffffffffffffffffffffffffffffffffffffffff16906020019092919080359060200190929190505050610e79565b604051808215151515815260200191505060405180910390f35b34801561034757600080fd5b50610350610fa6565b6040518080602001828103825283818151815260200191508051906020019080838360005b83811015610390578082015181840152602081019050610375565b50505050905090810190601f1680156103bd5780820380516001836020036101000a031916815260200191505b509250505060405180910390f35b3480156103d757600080fd5b506104c5600480360360808110156103ee57600080fd5b81019080803573ffffffffffffffffffffffffffffffffffffffff169060200190929190803590602001909291908035906020019064010000000081111561043557600080fd5b82018360208201111561044757600080fd5b8035906020019184600183028401116401000000008311171561046957600080fd5b91908080601f016020809104026020016040519081016040528093929190818152602001838380828437600081840152601f19601f82011690508083019250505050505050919291929080359060200190929190505050611044565b6040518082815260200191505060405180910390f35b3480156104e757600080fd5b506104f0611200565b6040518082815260200191505060405180910390f35b34801561051257600080fd5b5061057f6004803603606081101561052957600080fd5b81019080803573ffffffffffffffffffffffffffffffffffffffff169060200190929190803573ffffffffffffffffffffffffffffffffffffffff1690602001909291908035906020019092919050505061120a565b604051808215151515815260200191505060405180910390f35b3480156105a557600080fd5b506105d2600480360360208110156105bc57600080fd5b8101908080359060200190929190505050611412565b604051808373ffffffffffffffffffffffffffffffffffffffff1673ffffffffffffffffffffffffffffffffffffffff1681526020018281526020019250505060405180910390f35b34801561062757600080fd5b50610630611465565b604051808260ff1660ff16815260200191505060405180910390f35b34801561065857600080fd5b506106a56004803603604081101561066f57600080fd5b81019080803573ffffffffffffffffffffffffffffffffffffffff1690602001909291908035906020019092919050505061147c565b604051808215151515815260200191505060405180910390f35b3480156106cb57600080fd5b506106d46116b3565b6040518082815260200191505060405180910390f35b3480156106f657600080fd5b506106ff6116c0565b6040518080602001806020018060200180602001806020018060200187810387528d818151815260200191508051906020019060200280838360005b8381101561075657808201518184015260208101905061073b565b5050505090500187810386528c818151815260200191508051906020019060200280838360005b8381101561079857808201518184015260208101905061077d565b5050505090500187810385528b818151815260200191508051906020019060200280838360005b838110156107da5780820151818401526020810190506107bf565b5050505090500187810384528a818151815260200191508051906020019060200280838360005b8381101561081c578082015181840152602081019050610801565b50505050905001878103835289818151815260200191508051906020019060200280838360005b8381101561085e578082015181840152602081019050610843565b50505050905001878103825288818151815260200191508051906020019060200280838360005b838110156108a0578082015181840152602081019050610885565b505050509050019c5050505050505050505050505060405180910390f35b3480156108ca57600080fd5b506108f7600480360360208110156108e157600080fd5b8101908080359060200190929190505050611c0f565b005b34801561090557600080fd5b5061090e611d08565b604051808060200180602001838103835285818151815260200191508051906020019060200280838360005b8381101561095557808201518184015260208101905061093a565b50505050905001838103825284818151815260200191508051906020019060200280838360005b8381101561099757808201518184015260208101905061097c565b5050505090500194505050505060405180910390f35b3480156109b957600080fd5b506109fc600480360360208110156109d057600080fd5b81019080803573ffffffffffffffffffffffffffffffffffffffff169060200190929190505050611e70565b6040518082815260200191505060405180910390f35b348015610a1e57600080fd5b50610a27611eb8565b6040518080602001828103825283818151815260200191508051906020019080838360005b83811015610a67578082015181840152602081019050610a4c565b50505050905090810190601f168015610a945780820380516001836020036101000a031916815260200191505b509250505060405180910390f35b348015610aae57600080fd5b50610afb60048036036040811015610ac557600080fd5b81019080803573ffffffffffffffffffffffffffffffffffffffff16906020019092919080359060200190929190505050611f5a565b604051808215151515815260200191505060405180910390f35b348015610b2157600080fd5b50610b6e60048036036040811015610b3857600080fd5b81019080803573ffffffffffffffffffffffffffffffffffffffff16906020019092919080359060200190929190505050612191565b604051808215151515815260200191505060405180910390f35b348015610b9457600080fd5b50610b9d6121a8565b6040518082815260200191505060405180910390f35b348015610bbf57600080fd5b50610bf860048036036040811015610bd657600080fd5b81019080803590602001909291908035151590602001909291905050506121b5565b005b348015610c0657600080fd5b50610c3360048036036020811015610c1d57600080fd5b81019080803590602001909291905050506123e1565b005b348015610c4157600080fd5b50610ca460048036036040811015610c5857600080fd5b81019080803573ffffffffffffffffffffffffffffffffffffffff169060200190929190803573ffffffffffffffffffffffffffffffffffffffff1690602001909291905050506126b8565b6040518082815260200191505060405180910390f35b600c81815481101515610cc957fe5b90600052602060002090600702016000915090508060000160009054906101000a900473ffffffffffffffffffffffffffffffffffffffff1690806001015490806002018054600181600116156101000203166002900480601f016020809104026020016040519081016040528092919081815260200182805460018160011615610100020316600290048015610da15780601f10610d7657610100808354040283529160200191610da1565b820191906000526020600020905b815481529060010190602001808311610d8457829003601f168201915b5050505050908060030154908060040160009054906101000a900460ff16908060040160019054906101000a900460ff16905086565b606060038054600181600116156101000203166002900480601f016020809104026020016040519081016040528092919081815260200182805460018160011615610100020316600290048015610e6f5780601f10610e4457610100808354040283529160200191610e6f565b820191906000526020600020905b815481529060010190602001808311610e5257829003601f168201915b5050505050905090565b60008073ffffffffffffffffffffffffffffffffffffffff168373ffffffffffffffffffffffffffffffffffffffff1614151515610eb657600080fd5b81600160003373ffffffffffffffffffffffffffffffffffffffff1673ffffffffffffffffffffffffffffffffffffffff16815260200190815260200160002060008573ffffffffffffffffffffffffffffffffffffffff1673ffffffffffffffffffffffffffffffffffffffff168152602001908152602001600020819055508273ffffffffffffffffffffffffffffffffffffffff163373ffffffffffffffffffffffffffffffffffffffff167f8c5be1e5ebec7d5bd14f71427d1e84f3dd0314c0f7b2291e5b200ac8c7c3b925846040518082815260200191505060405180910390a36001905092915050565b60088054600181600116156101000203166002900480601f01602080910402602001604051908101604052809291908181526020018280546001816001161561010002031660029004801561103c5780601f106110115761010080835404028352916020019161103c565b820191906000526020600020905b81548152906001019060200180831161101f57829003601f168201915b505050505081565b60008061105033611e70565b1115156110c5576040517f08c379a000000000000000000000000000000000000000000000000000000000815260040180806020018281038252601b8152602001807f4d73672073656e646572206d757374206f776e206120736c696365000000000081525060200191505060405180910390fd5b600c60c0604051908101604052808773ffffffffffffffffffffffffffffffffffffffff168152602001868152602001858152602001848152602001600015158152602001600015158152509080600181540180825580915050906001820390600052602060002090600702016000909192909190915060008201518160000160006101000a81548173ffffffffffffffffffffffffffffffffffffffff021916908373ffffffffffffffffffffffffffffffffffffffff1602179055506020820151816001015560408201518160020190805190602001906111a9929190612fe3565b506060820151816003015560808201518160040160006101000a81548160ff02191690831515021790555060a08201518160040160016101000a81548160ff02191690831515021790555050509050949350505050565b6000600254905090565b600061129b82600160008773ffffffffffffffffffffffffffffffffffffffff1673ffffffffffffffffffffffffffffffffffffffff16815260200190815260200160002060003373ffffffffffffffffffffffffffffffffffffffff1673ffffffffffffffffffffffffffffffffffffffff1681526020019081526020016000205461273f90919063ffffffff16565b600160008673ffffffffffffffffffffffffffffffffffffffff1673ffffffffffffffffffffffffffffffffffffffff16815260200190815260200160002060003373ffffffffffffffffffffffffffffffffffffffff1673ffffffffffffffffffffffffffffffffffffffff16815260200190815260200160002081905550611326848484612761565b3373ffffffffffffffffffffffffffffffffffffffff168473ffffffffffffffffffffffffffffffffffffffff167f8c5be1e5ebec7d5bd14f71427d1e84f3dd0314c0f7b2291e5b200ac8c7c3b925600160008873ffffffffffffffffffffffffffffffffffffffff1673ffffffffffffffffffffffffffffffffffffffff16815260200190815260200160002060003373ffffffffffffffffffffffffffffffffffffffff1673ffffffffffffffffffffffffffffffffffffffff168152602001908152602001600020546040518082815260200191505060405180910390a3600190509392505050565b600b8181548110151561142157fe5b90600052602060002090600202016000915090508060000160009054906101000a900473ffffffffffffffffffffffffffffffffffffffff16908060010154905082565b6000600560009054906101000a900460ff16905090565b60008073ffffffffffffffffffffffffffffffffffffffff168373ffffffffffffffffffffffffffffffffffffffff16141515156114b957600080fd5b61154882600160003373ffffffffffffffffffffffffffffffffffffffff1673ffffffffffffffffffffffffffffffffffffffff16815260200190815260200160002060008673ffffffffffffffffffffffffffffffffffffffff1673ffffffffffffffffffffffffffffffffffffffff1681526020019081526020016000205461278990919063ffffffff16565b600160003373ffffffffffffffffffffffffffffffffffffffff1673ffffffffffffffffffffffffffffffffffffffff16815260200190815260200160002060008573ffffffffffffffffffffffffffffffffffffffff1673ffffffffffffffffffffffffffffffffffffffff168152602001908152602001600020819055508273ffffffffffffffffffffffffffffffffffffffff163373ffffffffffffffffffffffffffffffffffffffff167f8c5be1e5ebec7d5bd14f71427d1e84f3dd0314c0f7b2291e5b200ac8c7c3b925600160003373ffffffffffffffffffffffffffffffffffffffff1673ffffffffffffffffffffffffffffffffffffffff16815260200190815260200160002060008773ffffffffffffffffffffffffffffffffffffffff1673ffffffffffffffffffffffffffffffffffffffff168152602001908152602001600020546040518082815260200191505060405180910390a36001905092915050565b6000600b80549050905090565b60608060608060608060006116d36121a8565b90506060816040519080825280602002602001820160405280156117065781602001602082028038833980820191505090505b50905060608260405190808252806020026020018201604052801561173a5781602001602082028038833980820191505090505b50905060608360405190808252806020026020018201604052801561177357816020015b606081526020019060019003908161175e5790505b5090506060846040519080825280602002602001820160405280156117a75781602001602082028038833980820191505090505b5090506060856040519080825280602002602001820160405280156117db5781602001602082028038833980820191505090505b50905060608660405190808252806020026020018201604052801561180f5781602001602082028038833980820191505090505b5090506060876040519080825280602002602001820160405280156118435781602001602082028038833980820191505090505b50905060008090505b88811015611bec57600c8181548110151561186357fe5b906000526020600020906007020160000160009054906101000a900473ffffffffffffffffffffffffffffffffffffffff1688828151811015156118a357fe5b9060200190602002019073ffffffffffffffffffffffffffffffffffffffff16908173ffffffffffffffffffffffffffffffffffffffff1681525050600c818154811015156118ee57fe5b906000526020600020906007020160010154878281518110151561190e57fe5b9060200190602002018181525050600c8181548110151561192b57fe5b90600052602060002090600702016002018054600181600116156101000203166002900480601f0160208091040260200160405190810160405280929190818152602001828054600181600116156101000203166002900480156119d05780601f106119a5576101008083540402835291602001916119d0565b820191906000526020600020905b8154815290600101906020018083116119b357829003601f168201915b505050505086828151811015156119e357fe5b90602001906020020181905250600c818154811015156119ff57fe5b9060005260206000209060070201600301548582815181101515611a1f57fe5b9060200190602002018181525050600c81815481101515611a3c57fe5b906000526020600020906007020160040160009054906101000a900460ff168482815181101515611a6957fe5b9060200190602002019015159081151581525050600c81815481101515611a8c57fe5b906000526020600020906007020160040160019054906101000a900460ff168382815181101515611ab957fe5b90602001906020020190151590811515815250506000809050600c82815481101515611ae157fe5b906000526020600020906007020160050160003373ffffffffffffffffffffffffffffffffffffffff1673ffffffffffffffffffffffffffffffffffffffff16815260200190815260200160002060009054906101000a900460ff1615611bc157600c82815481101515611b5157fe5b906000526020600020906007020160060160003373ffffffffffffffffffffffffffffffffffffffff1673ffffffffffffffffffffffffffffffffffffffff16815260200190815260200160002060009054906101000a900460ff1615611bbb5760029050611bc0565b600190505b5b808383815181101515611bd057fe5b906020019060200201818152505050808060010191505061184c565b508686858585859d509d509d509d509d509d505050505050505050909192939495565b6000611c1a33611e70565b111515611c8f576040517f08c379a000000000000000000000000000000000000000000000000000000000815260040180806020018281038252601b8152602001807f4d73672073656e646572206d757374206f776e206120736c696365000000000081525060200191505060405180910390fd5b60001515611d05576040517f08c379a00000000000000000000000000000000000000000000000000000000081526004018080602001828103825260138152602001807f4e6f742079657420696d706c656d656e7465640000000000000000000000000081525060200191505060405180910390fd5b50565b6060806000611d156116b3565b9050606081604051908082528060200260200182016040528015611d485781602001602082028038833980820191505090505b509050606082604051908082528060200260200182016040528015611d7c5781602001602082028038833980820191505090505b50905060008090505b83811015611e6257600b81815481101515611d9c57fe5b906000526020600020906002020160000160009054906101000a900473ffffffffffffffffffffffffffffffffffffffff168382815181101515611ddc57fe5b9060200190602002019073ffffffffffffffffffffffffffffffffffffffff16908173ffffffffffffffffffffffffffffffffffffffff1681525050600b81815481101515611e2757fe5b9060005260206000209060020201600101548282815181101515611e4757fe5b90602001906020020181815250508080600101915050611d85565b508181945094505050509091565b60008060008373ffffffffffffffffffffffffffffffffffffffff1673ffffffffffffffffffffffffffffffffffffffff168152602001908152602001600020549050919050565b606060048054600181600116156101000203166002900480601f016020809104026020016040519081016040528092919081815260200182805460018160011615610100020316600290048015611f505780601f10611f2557610100808354040283529160200191611f50565b820191906000526020600020905b815481529060010190602001808311611f3357829003601f168201915b5050505050905090565b60008073ffffffffffffffffffffffffffffffffffffffff168373ffffffffffffffffffffffffffffffffffffffff1614151515611f9757600080fd5b61202682600160003373ffffffffffffffffffffffffffffffffffffffff1673ffffffffffffffffffffffffffffffffffffffff16815260200190815260200160002060008673ffffffffffffffffffffffffffffffffffffffff1673ffffffffffffffffffffffffffffffffffffffff1681526020019081526020016000205461273f90919063ffffffff16565b600160003373ffffffffffffffffffffffffffffffffffffffff1673ffffffffffffffffffffffffffffffffffffffff16815260200190815260200160002060008573ffffffffffffffffffffffffffffffffffffffff1673ffffffffffffffffffffffffffffffffffffffff168152602001908152602001600020819055508273ffffffffffffffffffffffffffffffffffffffff163373ffffffffffffffffffffffffffffffffffffffff167f8c5be1e5ebec7d5bd14f71427d1e84f3dd0314c0f7b2291e5b200ac8c7c3b925600160003373ffffffffffffffffffffffffffffffffffffffff1673ffffffffffffffffffffffffffffffffffffffff16815260200190815260200160002060008773ffffffffffffffffffffffffffffffffffffffff1673ffffffffffffffffffffffffffffffffffffffff168152602001908152602001600020546040518082815260200191505060405180910390a36001905092915050565b600061219e338484612761565b6001905092915050565b6000600c80549050905090565b60006121c033611e70565b111515612235576040517f08c379a000000000000000000000000000000000000000000000000000000000815260040180806020018281038252601b8152602001807f4d73672073656e646572206d757374206f776e206120736c696365000000000081525060200191505060405180910390fd5b6000600c8381548110151561224657fe5b90600052602060002090600702019050600015158160050160003373ffffffffffffffffffffffffffffffffffffffff1673ffffffffffffffffffffffffffffffffffffffff16815260200190815260200160002060009054906101000a900460ff161515141515612320576040517f08c379a00000000000000000000000000000000000000000000000000000000081526004018080602001828103825260138152602001807f4572726f7220616c726561647920766f7465640000000000000000000000000081525060200191505060405180910390fd5b60018160050160003373ffffffffffffffffffffffffffffffffffffffff1673ffffffffffffffffffffffffffffffffffffffff16815260200190815260200160002060006101000a81548160ff021916908315150217905550818160060160003373ffffffffffffffffffffffffffffffffffffffff1673ffffffffffffffffffffffffffffffffffffffff16815260200190815260200160002060006101000a81548160ff0219169083151502179055506123dc836123e1565b505050565b60006123ec33611e70565b111515612461576040517f08c379a000000000000000000000000000000000000000000000000000000000815260040180806020018281038252601b8152602001807f4d73672073656e646572206d757374206f776e206120736c696365000000000081525060200191505060405180910390fd5b6000600c8281548110151561247257fe5b90600052602060002090600702019050600015158160040160009054906101000a900460ff16151514151561250f576040517f08c379a00000000000000000000000000000000000000000000000000000000081526004018080602001828103825260198152602001807f50726f706f73616c20616c726561647920636f6d706c6574650000000000000081525060200191505060405180910390fd5b6000809050600080905060008090505b600b8054905081101561265c576000600b8281548110151561253d57fe5b9060005260206000209060020201905060008160000160009054906101000a900473ffffffffffffffffffffffffffffffffffffffff1690508560050160008273ffffffffffffffffffffffffffffffffffffffff1673ffffffffffffffffffffffffffffffffffffffff16815260200190815260200160002060009054906101000a900460ff161561264d5760008660060160008373ffffffffffffffffffffffffffffffffffffffff1673ffffffffffffffffffffffffffffffffffffffff16815260200190815260200160002060009054906101000a900460ff169050600083600101549050811561263d576126368782612789565b965061264a565b6126478682612789565b95505b50505b5050808060010191505061251f565b506000612667611200565b9050600061267584836127aa565b9050600061268384846127aa565b90506006548210151561269a57612699876127d4565b5b600754811015156126af576126ae87612878565b5b50505050505050565b6000600160008473ffffffffffffffffffffffffffffffffffffffff1673ffffffffffffffffffffffffffffffffffffffff16815260200190815260200160002060008373ffffffffffffffffffffffffffffffffffffffff1673ffffffffffffffffffffffffffffffffffffffff16815260200190815260200160002054905092915050565b600082821115151561275057600080fd5b600082840390508091505092915050565b61276d838260006128d7565b612779828260016128d7565b612784838383612b1d565b505050565b60008082840190508381101515156127a057600080fd5b8091505092915050565b600080821115156127ba57600080fd5b600082848115156127c757fe5b0490508091505092915050565b6000600c828154811015156127e557fe5b9060005260206000209060070201905060018160040160006101000a81548160ff02191690831515021790555060018160040160016101000a81548160ff0219169083151502179055506000816003015414156128465761284582612ce9565b5b60018160030154141561285d5761285c82612d40565b5b6002816003015414156128745761287382612ddb565b5b5050565b6000600c8281548110151561288957fe5b9060005260206000209060070201905060018160040160006101000a81548160ff02191690831515021790555060008160040160016101000a81548160ff0219169083151502179055505050565b600960008473ffffffffffffffffffffffffffffffffffffffff1673ffffffffffffffffffffffffffffffffffffffff16815260200190815260200160002060009054906101000a900460ff161515612a79576001600960008573ffffffffffffffffffffffffffffffffffffffff1673ffffffffffffffffffffffffffffffffffffffff16815260200190815260200160002060006101000a81548160ff021916908315150217905550600b80549050600a60008573ffffffffffffffffffffffffffffffffffffffff1673ffffffffffffffffffffffffffffffffffffffff16815260200190815260200160002081905550600b60408051908101604052808573ffffffffffffffffffffffffffffffffffffffff16815260200160008152509080600181540180825580915050906001820390600052602060002090600202016000909192909190915060008201518160000160006101000a81548173ffffffffffffffffffffffffffffffffffffffff021916908373ffffffffffffffffffffffffffffffffffffffff160217905550602082015181600101555050505b6000600a60008573ffffffffffffffffffffffffffffffffffffffff1673ffffffffffffffffffffffffffffffffffffffff1681526020019081526020016000205490506000600b82815481101515612ace57fe5b906000526020600020906002020190508215612aff57612af2816001015485612789565b8160010181905550612b16565b612b0d81600101548561273f565b81600101819055505b5050505050565b600073ffffffffffffffffffffffffffffffffffffffff168273ffffffffffffffffffffffffffffffffffffffff1614151515612b5957600080fd5b612baa816000808673ffffffffffffffffffffffffffffffffffffffff1673ffffffffffffffffffffffffffffffffffffffff1681526020019081526020016000205461273f90919063ffffffff16565b6000808573ffffffffffffffffffffffffffffffffffffffff1673ffffffffffffffffffffffffffffffffffffffff16815260200190815260200160002081905550612c3d816000808573ffffffffffffffffffffffffffffffffffffffff1673ffffffffffffffffffffffffffffffffffffffff1681526020019081526020016000205461278990919063ffffffff16565b6000808473ffffffffffffffffffffffffffffffffffffffff1673ffffffffffffffffffffffffffffffffffffffff168152602001908152602001600020819055508173ffffffffffffffffffffffffffffffffffffffff168373ffffffffffffffffffffffffffffffffffffffff167fddf252ad1be2c89b69c2b068fc378daa952ba7f163c4a11628f55a4df523b3ef836040518082815260200191505060405180910390a3505050565b6000600c82815481101515612cfa57fe5b90600052602060002090600702019050612d3c8160000160009054906101000a900473ffffffffffffffffffffffffffffffffffffffff168260010154612e75565b5050565b6000600c82815481101515612d5157fe5b9060005260206000209060070201905060001515612dd7576040517f08c379a000000000000000000000000000000000000000000000000000000000815260040180806020018281038252601d8152602001807f4e6f742079657420696d706c656d656e746564206469766964656e647300000081525060200191505060405180910390fd5b5050565b6000600c82815481101515612dec57fe5b9060005260206000209060070201905060008160000160009054906101000a900473ffffffffffffffffffffffffffffffffffffffff1690508073ffffffffffffffffffffffffffffffffffffffff166108fc83600101549081150290604051600060405180830381858888f19350505050158015612e6f573d6000803e3d6000fd5b50505050565b612e81828260016128d7565b612e8b8282612e8f565b5050565b600073ffffffffffffffffffffffffffffffffffffffff168273ffffffffffffffffffffffffffffffffffffffff1614151515612ecb57600080fd5b612ee08160025461278990919063ffffffff16565b600281905550612f37816000808573ffffffffffffffffffffffffffffffffffffffff1673ffffffffffffffffffffffffffffffffffffffff1681526020019081526020016000205461278990919063ffffffff16565b6000808473ffffffffffffffffffffffffffffffffffffffff1673ffffffffffffffffffffffffffffffffffffffff168152602001908152602001600020819055508173ffffffffffffffffffffffffffffffffffffffff16600073ffffffffffffffffffffffffffffffffffffffff167fddf252ad1be2c89b69c2b068fc378daa952ba7f163c4a11628f55a4df523b3ef836040518082815260200191505060405180910390a35050565b828054600181600116156101000203166002900490600052602060002090601f016020900481019282601f1061302457805160ff1916838001178555613052565b82800160010185558215613052579182015b82811115613051578251825591602001919060010190613036565b5b50905061305f9190613063565b5090565b61308591905b80821115613081576000816000905550600101613069565b5090565b9056fea165627a7a7230582027ed02918768364b133bbcbbc6a375b40fe80979330bb4c35e8d1a69244b7e360029",
  "source": "pragma solidity ^0.5.0;\n\nimport \"openzeppelin-solidity/contracts/token/ERC20/ERC20.sol\";\nimport \"openzeppelin-solidity/contracts/token/ERC20/ERC20Detailed.sol\";\n\n/**\n * The PieOrg contract does it all\n */\ncontract PieOrg is ERC20, ERC20Detailed {\n    uint yesThreshold = 70;\n    uint noThreshold = 100 - yesThreshold;\n\n    string public orgName;\n\n    mapping (address => bool) private _accountIsTracked;\n    mapping (address => uint) private _trackedAccountIndex;\n\n    struct TrackedAccount {\n        address accountAddress;\n        uint accountBalance;\n    }\n\n    struct Proposal {\n        address toAddress;\n        uint amount;\n        string metadata;\n        uint proposalType;\n        bool complete;\n        bool success;\n        mapping (address => bool) accountHasVoted;\n        mapping (address => bool) accountVote;\n    }\n\n    TrackedAccount[] public trackedAccounts;\n    Proposal[] public proposals;\n\n    constructor(string memory _orgName) public ERC20Detailed(_orgName, \"SLICE\", 18) {\n        require(bytes(_orgName).length > 0, \"Org name must be nonempty\");\n        orgName = _orgName;\n        _mint(msg.sender, 1);\n    }\n\n    modifier onlyMember() {\n        require(balanceOf(msg.sender) > 0, \"Msg sender must own a slice\");\n        _;\n    }\n\n    function makeProposal(address toAddress, uint256 amount, string memory metadata, uint proposalType) public onlyMember returns (uint) {\n        return proposals.push(Proposal(toAddress, amount, metadata, proposalType, false, false));\n    }\n\n    function voteProposal(uint256 proposalID, bool vote) public onlyMember {\n        Proposal storage proposal = proposals[proposalID];\n        require(proposal.accountHasVoted[msg.sender] == false, \"Error already voted\");\n        proposal.accountHasVoted[msg.sender] = true;\n        proposal.accountVote[msg.sender] = vote;\n        countProposal(proposalID);\n    }\n\n    function countProposal(uint256 proposalID) public onlyMember {\n        Proposal storage proposal = proposals[proposalID];\n        require(proposal.complete == false, \"Proposal already complete\");\n        uint yesVotes = 0;\n        uint noVotes = 0;\n        for (uint i = 0; i < trackedAccounts.length; i++) {\n            TrackedAccount storage trackedAccount = trackedAccounts[i];\n            address accountAddress = trackedAccount.accountAddress;\n            if (proposal.accountHasVoted[accountAddress]) {\n                bool vote = proposal.accountVote[accountAddress];\n                uint voteShares = trackedAccount.accountBalance;\n                if(vote) {\n                    yesVotes = SafeMath.add(yesVotes, voteShares);\n                }\n                else {\n                    noVotes = SafeMath.add(noVotes, voteShares);\n                }\n            }\n        }\n        uint totalVotes = totalSupply();\n        uint yesPercent = SafeMath.div(yesVotes, totalVotes);\n        uint noPercent = SafeMath.div(noVotes, totalVotes);\n        if (yesPercent >= yesThreshold) {\n            _succeedProposal(proposalID);\n        }\n        if (noPercent >= noThreshold) {\n            _failProposal(proposalID);\n        }\n    }\n\n    function _succeedProposal(uint256 proposalID) private {\n        Proposal storage proposal = proposals[proposalID];\n        proposal.complete = true;\n        proposal.success = true;\n        if(proposal.proposalType == 0) {\n            _processProposalMint(proposalID);\n        }\n        if(proposal.proposalType == 1) {\n            _processProposalDividend(proposalID);\n        }\n        if(proposal.proposalType == 2) {\n            _processProposalSpend(proposalID);\n        }\n    }\n\n    function _processProposalMint(uint256 proposalID) private {\n        Proposal storage proposal = proposals[proposalID];\n        _mint(proposal.toAddress, proposal.amount);\n    }\n\n    function _processProposalDividend(uint256 proposalID) private {\n        Proposal storage proposal = proposals[proposalID];\n        require(false, \"Not yet implemented dividends\");\n        //TODO...\n    }\n\n    //re-entrancy protection needed here?\n    function _processProposalSpend(uint256 proposalID) private {\n        Proposal storage proposal = proposals[proposalID];\n        address payable payableAddress = address(uint160(proposal.toAddress));\n        payableAddress.transfer(proposal.amount);\n    }\n\n    function _failProposal(uint256 proposalID) private {\n        Proposal storage proposal = proposals[proposalID];\n        proposal.complete = true;\n        proposal.success = false;\n    }\n\n    function burnTokens(uint256 tokenAmount) public onlyMember {\n        require(false, \"Not yet implemented\");\n    }\n\n    function getTrackedAccountsLength() public view returns (uint) {\n        return trackedAccounts.length;\n    }\n\n    function getProposalsLength() public view returns (uint) {\n        return proposals.length;\n    }\n\n    function getTrackedAccounts() public view returns(address[] memory, uint[] memory) {\n        uint allAccountsLength = getTrackedAccountsLength();\n        address[] memory allAccountAddresses = new address[](allAccountsLength);\n        uint[] memory allAccountBalances = new uint[](allAccountsLength);\n        for (uint i = 0; i < allAccountsLength; i++) {\n            allAccountAddresses[i] = trackedAccounts[i].accountAddress;\n            allAccountBalances[i] = trackedAccounts[i].accountBalance;\n        }\n        return (allAccountAddresses, allAccountBalances);\n    }\n\n    function getProposals() public view returns(\n        address[] memory,\n        uint[] memory,\n        // string[] memory,\n        uint[] memory,\n        bool[] memory,\n        bool[] memory,\n        uint[] memory) {\n        uint allProposalsLength = getProposalsLength();\n        address[] memory allProposalToAddresses = new address[](allProposalsLength);\n        uint[] memory allProposalAmounts = new uint[](allProposalsLength);\n        string[] memory allProposalMetadatas = new string[](allProposalsLength);\n        uint[] memory allProposalTypes = new uint[](allProposalsLength);\n        bool[] memory allProposalCompletes = new bool[](allProposalsLength);\n        bool[] memory allProposalSuccesses = new bool[](allProposalsLength);\n        uint[] memory allProposalMyVote = new uint[](allProposalsLength);\n        for (uint i = 0; i < allProposalsLength; i++) {\n            allProposalToAddresses[i] = proposals[i].toAddress;\n            allProposalAmounts[i] = proposals[i].amount;\n            allProposalMetadatas[i] = proposals[i].metadata;\n            allProposalTypes[i] = proposals[i].proposalType;\n            allProposalCompletes[i] = proposals[i].complete;\n            allProposalSuccesses[i] = proposals[i].success;\n            uint myVote = 0;\n            if(proposals[i].accountHasVoted[msg.sender]) {\n                if(proposals[i].accountVote[msg.sender]) {\n                    myVote = 2;\n                }\n                else {\n                    myVote = 1;\n                }\n            }\n            allProposalMyVote[i] = myVote;\n        }\n        return (allProposalToAddresses, allProposalAmounts,\n            allProposalTypes, allProposalCompletes, allProposalSuccesses, allProposalMyVote);\n    }\n\n    function _mint(address account, uint256 value) internal {\n        _trackAccount(account, value, true);\n        super._mint(account, value);\n    }\n\n    function _trackAccount(address account, uint256 value, bool sign) internal {\n        if(!_accountIsTracked[account]) {\n            _accountIsTracked[account] = true;\n            _trackedAccountIndex[account] = trackedAccounts.length;\n            trackedAccounts.push(TrackedAccount(account, 0));\n        }\n        uint index = _trackedAccountIndex[account];\n        TrackedAccount storage trackedAccount = trackedAccounts[index];\n        if (sign) {\n            trackedAccount.accountBalance = SafeMath.add(trackedAccount.accountBalance, value);\n        }\n        else {\n            trackedAccount.accountBalance = SafeMath.sub(trackedAccount.accountBalance, value);\n\n        }\n    }\n\n    function _transfer(address from, address to, uint256 value) internal {\n        _trackAccount(from, value, false);\n        _trackAccount(to, value, true);\n        super._transfer(from, to, value);\n    }\n\n}\n",
  "sourcePath": "/mnt/c/Users/musni/code/ethnyc/thlicing-pie/blockchain/contracts/PieOrg.sol",
  "compiler": {
    "name": "solc",
    "version": "0.5.0+commit.1d4f565a.Emscripten.clang"
  },
  "schemaVersion": "3.0.9",
  "updatedAt": "2019-05-19T01:10:35.592Z",
  "devdoc": {
    "methods": {
      "allowance(address,address)": {
        "details": "Function to check the amount of tokens that an owner allowed to a spender.",
        "params": {
          "owner": "address The address which owns the funds.",
          "spender": "address The address which will spend the funds."
        },
        "return": "A uint256 specifying the amount of tokens still available for the spender."
      },
      "approve(address,uint256)": {
        "details": "Approve the passed address to spend the specified amount of tokens on behalf of msg.sender. Beware that changing an allowance with this method brings the risk that someone may use both the old and the new allowance by unfortunate transaction ordering. One possible solution to mitigate this race condition is to first reduce the spender's allowance to 0 and set the desired value afterwards: https://github.com/ethereum/EIPs/issues/20#issuecomment-263524729",
        "params": {
          "spender": "The address which will spend the funds.",
          "value": "The amount of tokens to be spent."
        }
      },
      "balanceOf(address)": {
        "details": "Gets the balance of the specified address.",
        "params": {
          "owner": "The address to query the balance of."
        },
        "return": "An uint256 representing the amount owned by the passed address."
      },
      "decimals()": {
        "return": "the number of decimals of the token."
      },
      "decreaseAllowance(address,uint256)": {
        "details": "Decrease the amount of tokens that an owner allowed to a spender. approve should be called when allowed_[_spender] == 0. To decrement allowed value is better to use this function to avoid 2 calls (and wait until the first transaction is mined) From MonolithDAO Token.sol Emits an Approval event.",
        "params": {
          "spender": "The address which will spend the funds.",
          "subtractedValue": "The amount of tokens to decrease the allowance by."
        }
      },
      "increaseAllowance(address,uint256)": {
        "details": "Increase the amount of tokens that an owner allowed to a spender. approve should be called when allowed_[_spender] == 0. To increment allowed value is better to use this function to avoid 2 calls (and wait until the first transaction is mined) From MonolithDAO Token.sol Emits an Approval event.",
        "params": {
          "addedValue": "The amount of tokens to increase the allowance by.",
          "spender": "The address which will spend the funds."
        }
      },
      "name()": {
        "return": "the name of the token."
      },
      "symbol()": {
        "return": "the symbol of the token."
      },
      "totalSupply()": {
        "details": "Total number of tokens in existence"
      },
      "transfer(address,uint256)": {
        "details": "Transfer token for a specified address",
        "params": {
          "to": "The address to transfer to.",
          "value": "The amount to be transferred."
        }
      },
      "transferFrom(address,address,uint256)": {
        "details": "Transfer tokens from one address to another. Note that while this function emits an Approval event, this is not required as per the specification, and other compliant implementations may not emit the event.",
        "params": {
          "from": "address The address which you want to send tokens from",
          "to": "address The address which you want to transfer to",
          "value": "uint256 the amount of tokens to be transferred"
        }
      }
    }
  },
  "userdoc": {
    "methods": {},
    "notice": "The PieOrg contract does it all"
  }
}