{
  "contractName": "PieOrg",
  "abi": [
    {
      "constant": true,
      "inputs": [
        {
          "name": "",
          "type": "uint256"
        }
      ],
      "name": "proposals",
      "outputs": [
        {
          "name": "toAddress",
          "type": "address"
        },
        {
          "name": "amount",
          "type": "uint256"
        },
        {
          "name": "metadata",
          "type": "bytes32"
        },
        {
          "name": "proposalType",
          "type": "uint256"
        },
        {
          "name": "complete",
          "type": "bool"
        },
        {
          "name": "success",
          "type": "bool"
        }
      ],
      "payable": false,
      "stateMutability": "view",
      "type": "function"
    },
    {
      "constant": true,
      "inputs": [],
      "name": "name",
      "outputs": [
        {
          "name": "",
          "type": "string"
        }
      ],
      "payable": false,
      "stateMutability": "view",
      "type": "function"
    },
    {
      "constant": false,
      "inputs": [
        {
          "name": "spender",
          "type": "address"
        },
        {
          "name": "value",
          "type": "uint256"
        }
      ],
      "name": "approve",
      "outputs": [
        {
          "name": "",
          "type": "bool"
        }
      ],
      "payable": false,
      "stateMutability": "nonpayable",
      "type": "function"
    },
    {
      "constant": true,
      "inputs": [],
      "name": "orgName",
      "outputs": [
        {
          "name": "",
          "type": "string"
        }
      ],
      "payable": false,
      "stateMutability": "view",
      "type": "function"
    },
    {
      "constant": true,
      "inputs": [],
      "name": "totalSupply",
      "outputs": [
        {
          "name": "",
          "type": "uint256"
        }
      ],
      "payable": false,
      "stateMutability": "view",
      "type": "function"
    },
    {
      "constant": false,
      "inputs": [
        {
          "name": "from",
          "type": "address"
        },
        {
          "name": "to",
          "type": "address"
        },
        {
          "name": "value",
          "type": "uint256"
        }
      ],
      "name": "transferFrom",
      "outputs": [
        {
          "name": "",
          "type": "bool"
        }
      ],
      "payable": false,
      "stateMutability": "nonpayable",
      "type": "function"
    },
    {
      "constant": true,
      "inputs": [
        {
          "name": "",
          "type": "uint256"
        }
      ],
      "name": "trackedAccounts",
      "outputs": [
        {
          "name": "accountAddress",
          "type": "address"
        },
        {
          "name": "accountBalance",
          "type": "uint256"
        }
      ],
      "payable": false,
      "stateMutability": "view",
      "type": "function"
    },
    {
      "constant": true,
      "inputs": [],
      "name": "decimals",
      "outputs": [
        {
          "name": "",
          "type": "uint8"
        }
      ],
      "payable": false,
      "stateMutability": "view",
      "type": "function"
    },
    {
      "constant": false,
      "inputs": [
        {
          "name": "spender",
          "type": "address"
        },
        {
          "name": "addedValue",
          "type": "uint256"
        }
      ],
      "name": "increaseAllowance",
      "outputs": [
        {
          "name": "",
          "type": "bool"
        }
      ],
      "payable": false,
      "stateMutability": "nonpayable",
      "type": "function"
    },
    {
      "constant": true,
      "inputs": [
        {
          "name": "owner",
          "type": "address"
        }
      ],
      "name": "balanceOf",
      "outputs": [
        {
          "name": "",
          "type": "uint256"
        }
      ],
      "payable": false,
      "stateMutability": "view",
      "type": "function"
    },
    {
      "constant": true,
      "inputs": [],
      "name": "symbol",
      "outputs": [
        {
          "name": "",
          "type": "string"
        }
      ],
      "payable": false,
      "stateMutability": "view",
      "type": "function"
    },
    {
      "constant": false,
      "inputs": [
        {
          "name": "spender",
          "type": "address"
        },
        {
          "name": "subtractedValue",
          "type": "uint256"
        }
      ],
      "name": "decreaseAllowance",
      "outputs": [
        {
          "name": "",
          "type": "bool"
        }
      ],
      "payable": false,
      "stateMutability": "nonpayable",
      "type": "function"
    },
    {
      "constant": false,
      "inputs": [
        {
          "name": "to",
          "type": "address"
        },
        {
          "name": "value",
          "type": "uint256"
        }
      ],
      "name": "transfer",
      "outputs": [
        {
          "name": "",
          "type": "bool"
        }
      ],
      "payable": false,
      "stateMutability": "nonpayable",
      "type": "function"
    },
    {
      "constant": true,
      "inputs": [
        {
          "name": "owner",
          "type": "address"
        },
        {
          "name": "spender",
          "type": "address"
        }
      ],
      "name": "allowance",
      "outputs": [
        {
          "name": "",
          "type": "uint256"
        }
      ],
      "payable": false,
      "stateMutability": "view",
      "type": "function"
    },
    {
      "inputs": [
        {
          "name": "_orgName",
          "type": "string"
        }
      ],
      "payable": false,
      "stateMutability": "nonpayable",
      "type": "constructor"
    },
    {
      "payable": true,
      "stateMutability": "payable",
      "type": "fallback"
    },
    {
      "anonymous": false,
      "inputs": [
        {
          "indexed": true,
          "name": "from",
          "type": "address"
        },
        {
          "indexed": true,
          "name": "to",
          "type": "address"
        },
        {
          "indexed": false,
          "name": "value",
          "type": "uint256"
        }
      ],
      "name": "Transfer",
      "type": "event"
    },
    {
      "anonymous": false,
      "inputs": [
        {
          "indexed": true,
          "name": "owner",
          "type": "address"
        },
        {
          "indexed": true,
          "name": "spender",
          "type": "address"
        },
        {
          "indexed": false,
          "name": "value",
          "type": "uint256"
        }
      ],
      "name": "Approval",
      "type": "event"
    },
    {
      "constant": false,
      "inputs": [
        {
          "name": "toAddress",
          "type": "address"
        },
        {
          "name": "amount",
          "type": "uint256"
        },
        {
          "name": "metadata",
          "type": "bytes32"
        },
        {
          "name": "proposalType",
          "type": "uint256"
        }
      ],
      "name": "makeProposal",
      "outputs": [
        {
          "name": "",
          "type": "uint256"
        }
      ],
      "payable": false,
      "stateMutability": "nonpayable",
      "type": "function"
    },
    {
      "constant": false,
      "inputs": [
        {
          "name": "proposalID",
          "type": "uint256"
        },
        {
          "name": "vote",
          "type": "bool"
        }
      ],
      "name": "voteProposal",
      "outputs": [],
      "payable": false,
      "stateMutability": "nonpayable",
      "type": "function"
    },
    {
      "constant": false,
      "inputs": [
        {
          "name": "proposalID",
          "type": "uint256"
        }
      ],
      "name": "countProposal",
      "outputs": [],
      "payable": false,
      "stateMutability": "nonpayable",
      "type": "function"
    },
    {
      "constant": false,
      "inputs": [
        {
          "name": "tokenAmount",
          "type": "uint256"
        }
      ],
      "name": "burnTokens",
      "outputs": [],
      "payable": false,
      "stateMutability": "nonpayable",
      "type": "function"
    },
    {
      "constant": true,
      "inputs": [],
      "name": "getTrackedAccountsLength",
      "outputs": [
        {
          "name": "",
          "type": "uint256"
        }
      ],
      "payable": false,
      "stateMutability": "view",
      "type": "function"
    },
    {
      "constant": true,
      "inputs": [],
      "name": "getProposalsLength",
      "outputs": [
        {
          "name": "",
          "type": "uint256"
        }
      ],
      "payable": false,
      "stateMutability": "view",
      "type": "function"
    },
    {
      "constant": true,
      "inputs": [],
      "name": "getTrackedAccounts",
      "outputs": [
        {
          "name": "",
          "type": "address[]"
        },
        {
          "name": "",
          "type": "uint256[]"
        }
      ],
      "payable": false,
      "stateMutability": "view",
      "type": "function"
    },
    {
      "constant": true,
      "inputs": [],
      "name": "getProposals",
      "outputs": [
        {
          "name": "",
          "type": "address[]"
        },
        {
          "name": "",
          "type": "uint256[]"
        },
        {
          "name": "",
          "type": "bytes32[]"
        },
        {
          "name": "",
          "type": "uint256[]"
        },
        {
          "name": "",
          "type": "bool[]"
        },
        {
          "name": "",
          "type": "bool[]"
        },
        {
          "name": "",
          "type": "uint256[]"
        }
      ],
      "payable": false,
      "stateMutability": "view",
      "type": "function"
    }
  ],
  "bytecode": "0x608060405260466006556006546064036007553480156200001f57600080fd5b50604051620035c1380380620035c1833981018060405260208110156200004557600080fd5b8101908080516401000000008111156200005e57600080fd5b828101905060208101848111156200007557600080fd5b81518560018202830111640100000000821117156200009357600080fd5b5050929190505050806040805190810160405280600581526020017f534c49434500000000000000000000000000000000000000000000000000000081525060128260039080519060200190620000ec9291906200064b565b508160049080519060200190620001059291906200064b565b5080600560006101000a81548160ff021916908360ff160217905550505050600081511115156200019e576040517f08c379a00000000000000000000000000000000000000000000000000000000081526004018080602001828103825260198152602001807f4f7267206e616d65206d757374206265206e6f6e656d7074790000000000000081525060200191505060405180910390fd5b8060089080519060200190620001b69291906200064b565b50620001d3336001620001da640100000000026401000000009004565b50620006fa565b620001f7828260016200021b640100000000026401000000009004565b620002178282620004916401000000000262002d37176401000000009004565b5050565b600960008473ffffffffffffffffffffffffffffffffffffffff1673ffffffffffffffffffffffffffffffffffffffff16815260200190815260200160002060009054906101000a900460ff161515620003be576001600960008573ffffffffffffffffffffffffffffffffffffffff1673ffffffffffffffffffffffffffffffffffffffff16815260200190815260200160002060006101000a81548160ff021916908315150217905550600b80549050600a60008573ffffffffffffffffffffffffffffffffffffffff1673ffffffffffffffffffffffffffffffffffffffff16815260200190815260200160002081905550600b60408051908101604052808573ffffffffffffffffffffffffffffffffffffffff16815260200160008152509080600181540180825580915050906001820390600052602060002090600202016000909192909190915060008201518160000160006101000a81548173ffffffffffffffffffffffffffffffffffffffff021916908373ffffffffffffffffffffffffffffffffffffffff160217905550602082015181600101555050505b6000600a60008573ffffffffffffffffffffffffffffffffffffffff1673ffffffffffffffffffffffffffffffffffffffff1681526020019081526020016000205490506000600b828154811015156200041457fe5b9060005260206000209060020201905082156200045d576200044f8160010154856200060664010000000002620025a1176401000000009004565b81600101819055506200048a565b62000481816001015485620006286401000000000262002557176401000000009004565b81600101819055505b5050505050565b600073ffffffffffffffffffffffffffffffffffffffff168273ffffffffffffffffffffffffffffffffffffffff1614151515620004ce57600080fd5b620004f3816002546200060664010000000002620025a1179091906401000000009004565b6002819055506200055a816000808573ffffffffffffffffffffffffffffffffffffffff1673ffffffffffffffffffffffffffffffffffffffff168152602001908152602001600020546200060664010000000002620025a1179091906401000000009004565b6000808473ffffffffffffffffffffffffffffffffffffffff1673ffffffffffffffffffffffffffffffffffffffff168152602001908152602001600020819055508173ffffffffffffffffffffffffffffffffffffffff16600073ffffffffffffffffffffffffffffffffffffffff167fddf252ad1be2c89b69c2b068fc378daa952ba7f163c4a11628f55a4df523b3ef836040518082815260200191505060405180910390a35050565b60008082840190508381101515156200061e57600080fd5b8091505092915050565b60008282111515156200063a57600080fd5b600082840390508091505092915050565b828054600181600116156101000203166002900490600052602060002090601f016020900481019282601f106200068e57805160ff1916838001178555620006bf565b82800160010185558215620006bf579182015b82811115620006be578251825591602001919060010190620006a1565b5b509050620006ce9190620006d2565b5090565b620006f791905b80821115620006f3576000816000905550600101620006d9565b5090565b90565b612eb7806200070a6000396000f3fe608060405260043610610128576000357c0100000000000000000000000000000000000000000000000000000000900463ffffffff168063013cf08b1461012a57806306fdde03146101d0578063095ea7b3146102605780631386dc2d146102d357806318160ddd1461036357806323b872dd1461038e57806325313a3314610421578063313ce567146104a357806339509351146104d4578063593dafd21461054757806362564c48146105725780636d1b229d1461078e5780636e240146146107c957806370a082311461087d57806395d89b41146108e2578063a457c2d714610972578063a9059cbb146109e5578063bc378a7314610a58578063bcfb9b6114610a83578063c9a9b40714610aca578063d2bd199d14610b4d578063dd62ed3e14610b88575b005b34801561013657600080fd5b506101636004803603602081101561014d57600080fd5b8101908080359060200190929190505050610c0d565b604051808773ffffffffffffffffffffffffffffffffffffffff1673ffffffffffffffffffffffffffffffffffffffff1681526020018681526020018581526020018481526020018315151515815260200182151515158152602001965050505050505060405180910390f35b3480156101dc57600080fd5b506101e5610c92565b6040518080602001828103825283818151815260200191508051906020019080838360005b8381101561022557808201518184015260208101905061020a565b50505050905090810190601f1680156102525780820380516001836020036101000a031916815260200191505b509250505060405180910390f35b34801561026c57600080fd5b506102b96004803603604081101561028357600080fd5b81019080803573ffffffffffffffffffffffffffffffffffffffff16906020019092919080359060200190929190505050610d34565b604051808215151515815260200191505060405180910390f35b3480156102df57600080fd5b506102e8610e61565b6040518080602001828103825283818151815260200191508051906020019080838360005b8381101561032857808201518184015260208101905061030d565b50505050905090810190601f1680156103555780820380516001836020036101000a031916815260200191505b509250505060405180910390f35b34801561036f57600080fd5b50610378610eff565b6040518082815260200191505060405180910390f35b34801561039a57600080fd5b50610407600480360360608110156103b157600080fd5b81019080803573ffffffffffffffffffffffffffffffffffffffff169060200190929190803573ffffffffffffffffffffffffffffffffffffffff16906020019092919080359060200190929190505050610f09565b604051808215151515815260200191505060405180910390f35b34801561042d57600080fd5b5061045a6004803603602081101561044457600080fd5b8101908080359060200190929190505050611111565b604051808373ffffffffffffffffffffffffffffffffffffffff1673ffffffffffffffffffffffffffffffffffffffff1681526020018281526020019250505060405180910390f35b3480156104af57600080fd5b506104b8611164565b604051808260ff1660ff16815260200191505060405180910390f35b3480156104e057600080fd5b5061052d600480360360408110156104f757600080fd5b81019080803573ffffffffffffffffffffffffffffffffffffffff1690602001909291908035906020019092919050505061117b565b604051808215151515815260200191505060405180910390f35b34801561055357600080fd5b5061055c6113b2565b6040518082815260200191505060405180910390f35b34801561057e57600080fd5b506105876113bf565b604051808060200180602001806020018060200180602001806020018060200188810388528f818151815260200191508051906020019060200280838360005b838110156105e25780820151818401526020810190506105c7565b5050505090500188810387528e818151815260200191508051906020019060200280838360005b83811015610624578082015181840152602081019050610609565b5050505090500188810386528d818151815260200191508051906020019060200280838360005b8381101561066657808201518184015260208101905061064b565b5050505090500188810385528c818151815260200191508051906020019060200280838360005b838110156106a857808201518184015260208101905061068d565b5050505090500188810384528b818151815260200191508051906020019060200280838360005b838110156106ea5780820151818401526020810190506106cf565b5050505090500188810383528a818151815260200191508051906020019060200280838360005b8381101561072c578082015181840152602081019050610711565b50505050905001888103825289818151815260200191508051906020019060200280838360005b8381101561076e578082015181840152602081019050610753565b505050509050019e50505050505050505050505050505060405180910390f35b34801561079a57600080fd5b506107c7600480360360208110156107b157600080fd5b8101908080359060200190929190505050611878565b005b3480156107d557600080fd5b506107de611971565b604051808060200180602001838103835285818151815260200191508051906020019060200280838360005b8381101561082557808201518184015260208101905061080a565b50505050905001838103825284818151815260200191508051906020019060200280838360005b8381101561086757808201518184015260208101905061084c565b5050505090500194505050505060405180910390f35b34801561088957600080fd5b506108cc600480360360208110156108a057600080fd5b81019080803573ffffffffffffffffffffffffffffffffffffffff169060200190929190505050611ad9565b6040518082815260200191505060405180910390f35b3480156108ee57600080fd5b506108f7611b21565b6040518080602001828103825283818151815260200191508051906020019080838360005b8381101561093757808201518184015260208101905061091c565b50505050905090810190601f1680156109645780820380516001836020036101000a031916815260200191505b509250505060405180910390f35b34801561097e57600080fd5b506109cb6004803603604081101561099557600080fd5b81019080803573ffffffffffffffffffffffffffffffffffffffff16906020019092919080359060200190929190505050611bc3565b604051808215151515815260200191505060405180910390f35b3480156109f157600080fd5b50610a3e60048036036040811015610a0857600080fd5b81019080803573ffffffffffffffffffffffffffffffffffffffff16906020019092919080359060200190929190505050611dfa565b604051808215151515815260200191505060405180910390f35b348015610a6457600080fd5b50610a6d611e11565b6040518082815260200191505060405180910390f35b348015610a8f57600080fd5b50610ac860048036036040811015610aa657600080fd5b8101908080359060200190929190803515159060200190929190505050611e1e565b005b348015610ad657600080fd5b50610b3760048036036080811015610aed57600080fd5b81019080803573ffffffffffffffffffffffffffffffffffffffff16906020019092919080359060200190929190803590602001909291908035906020019092919050505061204a565b6040518082815260200191505060405180910390f35b348015610b5957600080fd5b50610b8660048036036020811015610b7057600080fd5b81019080803590602001909291905050506121f3565b005b348015610b9457600080fd5b50610bf760048036036040811015610bab57600080fd5b81019080803573ffffffffffffffffffffffffffffffffffffffff169060200190929190803573ffffffffffffffffffffffffffffffffffffffff1690602001909291905050506124d0565b6040518082815260200191505060405180910390f35b600c81815481101515610c1c57fe5b90600052602060002090600702016000915090508060000160009054906101000a900473ffffffffffffffffffffffffffffffffffffffff16908060010154908060020154908060030154908060040160009054906101000a900460ff16908060040160019054906101000a900460ff16905086565b606060038054600181600116156101000203166002900480601f016020809104026020016040519081016040528092919081815260200182805460018160011615610100020316600290048015610d2a5780601f10610cff57610100808354040283529160200191610d2a565b820191906000526020600020905b815481529060010190602001808311610d0d57829003601f168201915b5050505050905090565b60008073ffffffffffffffffffffffffffffffffffffffff168373ffffffffffffffffffffffffffffffffffffffff1614151515610d7157600080fd5b81600160003373ffffffffffffffffffffffffffffffffffffffff1673ffffffffffffffffffffffffffffffffffffffff16815260200190815260200160002060008573ffffffffffffffffffffffffffffffffffffffff1673ffffffffffffffffffffffffffffffffffffffff168152602001908152602001600020819055508273ffffffffffffffffffffffffffffffffffffffff163373ffffffffffffffffffffffffffffffffffffffff167f8c5be1e5ebec7d5bd14f71427d1e84f3dd0314c0f7b2291e5b200ac8c7c3b925846040518082815260200191505060405180910390a36001905092915050565b60088054600181600116156101000203166002900480601f016020809104026020016040519081016040528092919081815260200182805460018160011615610100020316600290048015610ef75780601f10610ecc57610100808354040283529160200191610ef7565b820191906000526020600020905b815481529060010190602001808311610eda57829003601f168201915b505050505081565b6000600254905090565b6000610f9a82600160008773ffffffffffffffffffffffffffffffffffffffff1673ffffffffffffffffffffffffffffffffffffffff16815260200190815260200160002060003373ffffffffffffffffffffffffffffffffffffffff1673ffffffffffffffffffffffffffffffffffffffff1681526020019081526020016000205461255790919063ffffffff16565b600160008673ffffffffffffffffffffffffffffffffffffffff1673ffffffffffffffffffffffffffffffffffffffff16815260200190815260200160002060003373ffffffffffffffffffffffffffffffffffffffff1673ffffffffffffffffffffffffffffffffffffffff16815260200190815260200160002081905550611025848484612579565b3373ffffffffffffffffffffffffffffffffffffffff168473ffffffffffffffffffffffffffffffffffffffff167f8c5be1e5ebec7d5bd14f71427d1e84f3dd0314c0f7b2291e5b200ac8c7c3b925600160008873ffffffffffffffffffffffffffffffffffffffff1673ffffffffffffffffffffffffffffffffffffffff16815260200190815260200160002060003373ffffffffffffffffffffffffffffffffffffffff1673ffffffffffffffffffffffffffffffffffffffff168152602001908152602001600020546040518082815260200191505060405180910390a3600190509392505050565b600b8181548110151561112057fe5b90600052602060002090600202016000915090508060000160009054906101000a900473ffffffffffffffffffffffffffffffffffffffff16908060010154905082565b6000600560009054906101000a900460ff16905090565b60008073ffffffffffffffffffffffffffffffffffffffff168373ffffffffffffffffffffffffffffffffffffffff16141515156111b857600080fd5b61124782600160003373ffffffffffffffffffffffffffffffffffffffff1673ffffffffffffffffffffffffffffffffffffffff16815260200190815260200160002060008673ffffffffffffffffffffffffffffffffffffffff1673ffffffffffffffffffffffffffffffffffffffff168152602001908152602001600020546125a190919063ffffffff16565b600160003373ffffffffffffffffffffffffffffffffffffffff1673ffffffffffffffffffffffffffffffffffffffff16815260200190815260200160002060008573ffffffffffffffffffffffffffffffffffffffff1673ffffffffffffffffffffffffffffffffffffffff168152602001908152602001600020819055508273ffffffffffffffffffffffffffffffffffffffff163373ffffffffffffffffffffffffffffffffffffffff167f8c5be1e5ebec7d5bd14f71427d1e84f3dd0314c0f7b2291e5b200ac8c7c3b925600160003373ffffffffffffffffffffffffffffffffffffffff1673ffffffffffffffffffffffffffffffffffffffff16815260200190815260200160002060008773ffffffffffffffffffffffffffffffffffffffff1673ffffffffffffffffffffffffffffffffffffffff168152602001908152602001600020546040518082815260200191505060405180910390a36001905092915050565b6000600b80549050905090565b606080606080606080606060006113d4611e11565b90506060816040519080825280602002602001820160405280156114075781602001602082028038833980820191505090505b50905060608260405190808252806020026020018201604052801561143b5781602001602082028038833980820191505090505b50905060608360405190808252806020026020018201604052801561146f5781602001602082028038833980820191505090505b5090506060846040519080825280602002602001820160405280156114a35781602001602082028038833980820191505090505b5090506060856040519080825280602002602001820160405280156114d75781602001602082028038833980820191505090505b50905060608660405190808252806020026020018201604052801561150b5781602001602082028038833980820191505090505b50905060608760405190808252806020026020018201604052801561153f5781602001602082028038833980820191505090505b50905060008090505b8881101561185157600c8181548110151561155f57fe5b906000526020600020906007020160000160009054906101000a900473ffffffffffffffffffffffffffffffffffffffff16888281518110151561159f57fe5b9060200190602002019073ffffffffffffffffffffffffffffffffffffffff16908173ffffffffffffffffffffffffffffffffffffffff1681525050600c818154811015156115ea57fe5b906000526020600020906007020160010154878281518110151561160a57fe5b9060200190602002018181525050600c8181548110151561162757fe5b906000526020600020906007020160020154868281518110151561164757fe5b9060200190602002018181525050600c8181548110151561166457fe5b906000526020600020906007020160030154858281518110151561168457fe5b9060200190602002018181525050600c818154811015156116a157fe5b906000526020600020906007020160040160009054906101000a900460ff1684828151811015156116ce57fe5b9060200190602002019015159081151581525050600c818154811015156116f157fe5b906000526020600020906007020160040160019054906101000a900460ff16838281518110151561171e57fe5b90602001906020020190151590811515815250506000809050600c8281548110151561174657fe5b906000526020600020906007020160050160003373ffffffffffffffffffffffffffffffffffffffff1673ffffffffffffffffffffffffffffffffffffffff16815260200190815260200160002060009054906101000a900460ff161561182657600c828154811015156117b657fe5b906000526020600020906007020160060160003373ffffffffffffffffffffffffffffffffffffffff1673ffffffffffffffffffffffffffffffffffffffff16815260200190815260200160002060009054906101000a900460ff16156118205760029050611825565b600190505b5b80838381518110151561183557fe5b9060200190602002018181525050508080600101915050611548565b50868686868686869e509e509e509e509e509e509e50505050505050505090919293949596565b600061188333611ad9565b1115156118f8576040517f08c379a000000000000000000000000000000000000000000000000000000000815260040180806020018281038252601b8152602001807f4d73672073656e646572206d757374206f776e206120736c696365000000000081525060200191505060405180910390fd5b6000151561196e576040517f08c379a00000000000000000000000000000000000000000000000000000000081526004018080602001828103825260138152602001807f4e6f742079657420696d706c656d656e7465640000000000000000000000000081525060200191505060405180910390fd5b50565b606080600061197e6113b2565b90506060816040519080825280602002602001820160405280156119b15781602001602082028038833980820191505090505b5090506060826040519080825280602002602001820160405280156119e55781602001602082028038833980820191505090505b50905060008090505b83811015611acb57600b81815481101515611a0557fe5b906000526020600020906002020160000160009054906101000a900473ffffffffffffffffffffffffffffffffffffffff168382815181101515611a4557fe5b9060200190602002019073ffffffffffffffffffffffffffffffffffffffff16908173ffffffffffffffffffffffffffffffffffffffff1681525050600b81815481101515611a9057fe5b9060005260206000209060020201600101548282815181101515611ab057fe5b906020019060200201818152505080806001019150506119ee565b508181945094505050509091565b60008060008373ffffffffffffffffffffffffffffffffffffffff1673ffffffffffffffffffffffffffffffffffffffff168152602001908152602001600020549050919050565b606060048054600181600116156101000203166002900480601f016020809104026020016040519081016040528092919081815260200182805460018160011615610100020316600290048015611bb95780601f10611b8e57610100808354040283529160200191611bb9565b820191906000526020600020905b815481529060010190602001808311611b9c57829003601f168201915b5050505050905090565b60008073ffffffffffffffffffffffffffffffffffffffff168373ffffffffffffffffffffffffffffffffffffffff1614151515611c0057600080fd5b611c8f82600160003373ffffffffffffffffffffffffffffffffffffffff1673ffffffffffffffffffffffffffffffffffffffff16815260200190815260200160002060008673ffffffffffffffffffffffffffffffffffffffff1673ffffffffffffffffffffffffffffffffffffffff1681526020019081526020016000205461255790919063ffffffff16565b600160003373ffffffffffffffffffffffffffffffffffffffff1673ffffffffffffffffffffffffffffffffffffffff16815260200190815260200160002060008573ffffffffffffffffffffffffffffffffffffffff1673ffffffffffffffffffffffffffffffffffffffff168152602001908152602001600020819055508273ffffffffffffffffffffffffffffffffffffffff163373ffffffffffffffffffffffffffffffffffffffff167f8c5be1e5ebec7d5bd14f71427d1e84f3dd0314c0f7b2291e5b200ac8c7c3b925600160003373ffffffffffffffffffffffffffffffffffffffff1673ffffffffffffffffffffffffffffffffffffffff16815260200190815260200160002060008773ffffffffffffffffffffffffffffffffffffffff1673ffffffffffffffffffffffffffffffffffffffff168152602001908152602001600020546040518082815260200191505060405180910390a36001905092915050565b6000611e07338484612579565b6001905092915050565b6000600c80549050905090565b6000611e2933611ad9565b111515611e9e576040517f08c379a000000000000000000000000000000000000000000000000000000000815260040180806020018281038252601b8152602001807f4d73672073656e646572206d757374206f776e206120736c696365000000000081525060200191505060405180910390fd5b6000600c83815481101515611eaf57fe5b90600052602060002090600702019050600015158160050160003373ffffffffffffffffffffffffffffffffffffffff1673ffffffffffffffffffffffffffffffffffffffff16815260200190815260200160002060009054906101000a900460ff161515141515611f89576040517f08c379a00000000000000000000000000000000000000000000000000000000081526004018080602001828103825260138152602001807f4572726f7220616c726561647920766f7465640000000000000000000000000081525060200191505060405180910390fd5b60018160050160003373ffffffffffffffffffffffffffffffffffffffff1673ffffffffffffffffffffffffffffffffffffffff16815260200190815260200160002060006101000a81548160ff021916908315150217905550818160060160003373ffffffffffffffffffffffffffffffffffffffff1673ffffffffffffffffffffffffffffffffffffffff16815260200190815260200160002060006101000a81548160ff021916908315150217905550612045836121f3565b505050565b60008061205633611ad9565b1115156120cb576040517f08c379a000000000000000000000000000000000000000000000000000000000815260040180806020018281038252601b8152602001807f4d73672073656e646572206d757374206f776e206120736c696365000000000081525060200191505060405180910390fd5b600c60c0604051908101604052808773ffffffffffffffffffffffffffffffffffffffff168152602001868152602001858152602001848152602001600015158152602001600015158152509080600181540180825580915050906001820390600052602060002090600702016000909192909190915060008201518160000160006101000a81548173ffffffffffffffffffffffffffffffffffffffff021916908373ffffffffffffffffffffffffffffffffffffffff16021790555060208201518160010155604082015181600201556060820151816003015560808201518160040160006101000a81548160ff02191690831515021790555060a08201518160040160016101000a81548160ff02191690831515021790555050509050949350505050565b60006121fe33611ad9565b111515612273576040517f08c379a000000000000000000000000000000000000000000000000000000000815260040180806020018281038252601b8152602001807f4d73672073656e646572206d757374206f776e206120736c696365000000000081525060200191505060405180910390fd5b6000600c8281548110151561228457fe5b90600052602060002090600702019050600015158160040160009054906101000a900460ff161515141515612321576040517f08c379a00000000000000000000000000000000000000000000000000000000081526004018080602001828103825260198152602001807f50726f706f73616c20616c726561647920636f6d706c6574650000000000000081525060200191505060405180910390fd5b6000809050600080905060008090505b600b8054905081101561246e576000600b8281548110151561234f57fe5b9060005260206000209060020201905060008160000160009054906101000a900473ffffffffffffffffffffffffffffffffffffffff1690508560050160008273ffffffffffffffffffffffffffffffffffffffff1673ffffffffffffffffffffffffffffffffffffffff16815260200190815260200160002060009054906101000a900460ff161561245f5760008660060160008373ffffffffffffffffffffffffffffffffffffffff1673ffffffffffffffffffffffffffffffffffffffff16815260200190815260200160002060009054906101000a900460ff169050600083600101549050811561244f5761244887826125a1565b965061245c565b61245986826125a1565b95505b50505b50508080600101915050612331565b506000612479610eff565b9050600061248a60648502836125c2565b9050600061249b60648502846125c2565b9050600654821015156124b2576124b1876125ec565b5b600754811015156124c7576124c687612690565b5b50505050505050565b6000600160008473ffffffffffffffffffffffffffffffffffffffff1673ffffffffffffffffffffffffffffffffffffffff16815260200190815260200160002060008373ffffffffffffffffffffffffffffffffffffffff1673ffffffffffffffffffffffffffffffffffffffff16815260200190815260200160002054905092915050565b600082821115151561256857600080fd5b600082840390508091505092915050565b612585838260006126ef565b612591828260016126ef565b61259c838383612935565b505050565b60008082840190508381101515156125b857600080fd5b8091505092915050565b600080821115156125d257600080fd5b600082848115156125df57fe5b0490508091505092915050565b6000600c828154811015156125fd57fe5b9060005260206000209060070201905060018160040160006101000a81548160ff02191690831515021790555060018160040160016101000a81548160ff02191690831515021790555060008160030154141561265e5761265d82612b01565b5b6001816003015414156126755761267482612b58565b5b60028160030154141561268c5761268b82612c83565b5b5050565b6000600c828154811015156126a157fe5b9060005260206000209060070201905060018160040160006101000a81548160ff02191690831515021790555060008160040160016101000a81548160ff0219169083151502179055505050565b600960008473ffffffffffffffffffffffffffffffffffffffff1673ffffffffffffffffffffffffffffffffffffffff16815260200190815260200160002060009054906101000a900460ff161515612891576001600960008573ffffffffffffffffffffffffffffffffffffffff1673ffffffffffffffffffffffffffffffffffffffff16815260200190815260200160002060006101000a81548160ff021916908315150217905550600b80549050600a60008573ffffffffffffffffffffffffffffffffffffffff1673ffffffffffffffffffffffffffffffffffffffff16815260200190815260200160002081905550600b60408051908101604052808573ffffffffffffffffffffffffffffffffffffffff16815260200160008152509080600181540180825580915050906001820390600052602060002090600202016000909192909190915060008201518160000160006101000a81548173ffffffffffffffffffffffffffffffffffffffff021916908373ffffffffffffffffffffffffffffffffffffffff160217905550602082015181600101555050505b6000600a60008573ffffffffffffffffffffffffffffffffffffffff1673ffffffffffffffffffffffffffffffffffffffff1681526020019081526020016000205490506000600b828154811015156128e657fe5b9060005260206000209060020201905082156129175761290a8160010154856125a1565b816001018190555061292e565b612925816001015485612557565b81600101819055505b5050505050565b600073ffffffffffffffffffffffffffffffffffffffff168273ffffffffffffffffffffffffffffffffffffffff161415151561297157600080fd5b6129c2816000808673ffffffffffffffffffffffffffffffffffffffff1673ffffffffffffffffffffffffffffffffffffffff1681526020019081526020016000205461255790919063ffffffff16565b6000808573ffffffffffffffffffffffffffffffffffffffff1673ffffffffffffffffffffffffffffffffffffffff16815260200190815260200160002081905550612a55816000808573ffffffffffffffffffffffffffffffffffffffff1673ffffffffffffffffffffffffffffffffffffffff168152602001908152602001600020546125a190919063ffffffff16565b6000808473ffffffffffffffffffffffffffffffffffffffff1673ffffffffffffffffffffffffffffffffffffffff168152602001908152602001600020819055508173ffffffffffffffffffffffffffffffffffffffff168373ffffffffffffffffffffffffffffffffffffffff167fddf252ad1be2c89b69c2b068fc378daa952ba7f163c4a11628f55a4df523b3ef836040518082815260200191505060405180910390a3505050565b6000600c82815481101515612b1257fe5b90600052602060002090600702019050612b548160000160009054906101000a900473ffffffffffffffffffffffffffffffffffffffff168260010154612d1d565b5050565b6000600c82815481101515612b6957fe5b9060005260206000209060070201905060008090505b600b80549050811015612c7e576000600b82815481101515612b9d57fe5b9060005260206000209060020201905060008160000160009054906101000a900473ffffffffffffffffffffffffffffffffffffffff1690506000826001015490506000612be9610eff565b90506000612bf782846125c2565b90506000612c1c3073ffffffffffffffffffffffffffffffffffffffff1631836125c2565b905060008590508073ffffffffffffffffffffffffffffffffffffffff166108fc839081150290604051600060405180830381858888f19350505050158015612c69573d6000803e3d6000fd5b50505050505050508080600101915050612b7f565b505050565b6000600c82815481101515612c9457fe5b9060005260206000209060070201905060008160000160009054906101000a900473ffffffffffffffffffffffffffffffffffffffff1690508073ffffffffffffffffffffffffffffffffffffffff166108fc83600101549081150290604051600060405180830381858888f19350505050158015612d17573d6000803e3d6000fd5b50505050565b612d29828260016126ef565b612d338282612d37565b5050565b600073ffffffffffffffffffffffffffffffffffffffff168273ffffffffffffffffffffffffffffffffffffffff1614151515612d7357600080fd5b612d88816002546125a190919063ffffffff16565b600281905550612ddf816000808573ffffffffffffffffffffffffffffffffffffffff1673ffffffffffffffffffffffffffffffffffffffff168152602001908152602001600020546125a190919063ffffffff16565b6000808473ffffffffffffffffffffffffffffffffffffffff1673ffffffffffffffffffffffffffffffffffffffff168152602001908152602001600020819055508173ffffffffffffffffffffffffffffffffffffffff16600073ffffffffffffffffffffffffffffffffffffffff167fddf252ad1be2c89b69c2b068fc378daa952ba7f163c4a11628f55a4df523b3ef836040518082815260200191505060405180910390a3505056fea165627a7a7230582024dd1dfd6dae148f7b0f883ca3bd3709e7ce7312ab0e43e8ed2aacc9bf3df9dc0029",
  "source": "pragma solidity ^0.5.0;\n\nimport \"openzeppelin-solidity/contracts/token/ERC20/ERC20.sol\";\nimport \"openzeppelin-solidity/contracts/token/ERC20/ERC20Detailed.sol\";\n\n/**\n * The PieOrg contract does it all\n */\ncontract PieOrg is ERC20, ERC20Detailed {\n    uint yesThreshold = 70;\n    uint noThreshold = 100 - yesThreshold;\n\n    string public orgName;\n\n    mapping (address => bool) private _accountIsTracked;\n    mapping (address => uint) private _trackedAccountIndex;\n\n    struct TrackedAccount {\n        address accountAddress;\n        uint accountBalance;\n    }\n\n    struct Proposal {\n        address toAddress;\n        uint amount;\n        bytes32 metadata;\n        uint proposalType;\n        bool complete;\n        bool success;\n        mapping (address => bool) accountHasVoted;\n        mapping (address => bool) accountVote;\n    }\n\n    TrackedAccount[] public trackedAccounts;\n    Proposal[] public proposals;\n\n    constructor(string memory _orgName) public ERC20Detailed(_orgName, \"SLICE\", 18) {\n        require(bytes(_orgName).length > 0, \"Org name must be nonempty\");\n        orgName = _orgName;\n        _mint(msg.sender, 1);\n    }\n\n    function() external payable {\n\n    }\n\n    modifier onlyMember() {\n        require(balanceOf(msg.sender) > 0, \"Msg sender must own a slice\");\n        _;\n    }\n\n    function makeProposal(address toAddress, uint256 amount, bytes32 metadata, uint proposalType) public onlyMember returns (uint) {\n        return proposals.push(Proposal(toAddress, amount, metadata, proposalType, false, false));\n    }\n\n    function voteProposal(uint256 proposalID, bool vote) public onlyMember {\n        Proposal storage proposal = proposals[proposalID];\n        require(proposal.accountHasVoted[msg.sender] == false, \"Error already voted\");\n        proposal.accountHasVoted[msg.sender] = true;\n        proposal.accountVote[msg.sender] = vote;\n        countProposal(proposalID);\n    }\n\n    function countProposal(uint256 proposalID) public onlyMember {\n        Proposal storage proposal = proposals[proposalID];\n        require(proposal.complete == false, \"Proposal already complete\");\n        uint yesVotes = 0;\n        uint noVotes = 0;\n        for (uint i = 0; i < trackedAccounts.length; i++) {\n            TrackedAccount storage trackedAccount = trackedAccounts[i];\n            address accountAddress = trackedAccount.accountAddress;\n            if (proposal.accountHasVoted[accountAddress]) {\n                bool vote = proposal.accountVote[accountAddress];\n                uint voteShares = trackedAccount.accountBalance;\n                if(vote) {\n                    yesVotes = SafeMath.add(yesVotes, voteShares);\n                }\n                else {\n                    noVotes = SafeMath.add(noVotes, voteShares);\n                }\n            }\n        }\n        uint totalVotes = totalSupply();\n        uint yesPercent = SafeMath.div(yesVotes*100, totalVotes);\n        uint noPercent = SafeMath.div(noVotes*100, totalVotes);\n        if (yesPercent >= yesThreshold) {\n            _succeedProposal(proposalID);\n        }\n        if (noPercent >= noThreshold) {\n            _failProposal(proposalID);\n        }\n    }\n\n    function _succeedProposal(uint256 proposalID) private {\n        Proposal storage proposal = proposals[proposalID];\n        proposal.complete = true;\n        proposal.success = true;\n        if(proposal.proposalType == 0) {\n            _processProposalMint(proposalID);\n        }\n        if(proposal.proposalType == 1) {\n            _processProposalDividend(proposalID);\n        }\n        if(proposal.proposalType == 2) {\n            _processProposalSpend(proposalID);\n        }\n    }\n\n    function _processProposalMint(uint256 proposalID) private {\n        Proposal storage proposal = proposals[proposalID];\n        _mint(proposal.toAddress, proposal.amount);\n    }\n\n    //TODO: fix for re-rentrancy, maybe for async withdrawal, and check for nonpayable addresses\n    function _processProposalDividend(uint256 proposalID) private {\n        Proposal storage proposal = proposals[proposalID];\n        for (uint i = 0; i < trackedAccounts.length; i++) {\n            TrackedAccount storage trackedAccount = trackedAccounts[i];\n            address accountAddress = trackedAccount.accountAddress;\n            uint voteShares = trackedAccount.accountBalance;\n            uint totalVotes = totalSupply();\n            uint proportion = SafeMath.div(totalVotes, voteShares);\n            uint ethShare = SafeMath.div(address(this).balance, proportion);\n            address payable payableAddress = address(uint160(accountAddress));\n            payableAddress.transfer(ethShare);\n        }\n    }\n\n    //fix for re-rentrancy, maybe for async withdrawal, and check for nonpayable addresses\n    function _processProposalSpend(uint256 proposalID) private {\n        Proposal storage proposal = proposals[proposalID];\n        address payable payableAddress = address(uint160(proposal.toAddress));\n        payableAddress.transfer(proposal.amount);\n    }\n\n    function _failProposal(uint256 proposalID) private {\n        Proposal storage proposal = proposals[proposalID];\n        proposal.complete = true;\n        proposal.success = false;\n    }\n\n    function burnTokens(uint256 tokenAmount) public onlyMember {\n        require(false, \"Not yet implemented\");\n    }\n\n    function getTrackedAccountsLength() public view returns (uint) {\n        return trackedAccounts.length;\n    }\n\n    function getProposalsLength() public view returns (uint) {\n        return proposals.length;\n    }\n\n    function getTrackedAccounts() public view returns(address[] memory, uint[] memory) {\n        uint allAccountsLength = getTrackedAccountsLength();\n        address[] memory allAccountAddresses = new address[](allAccountsLength);\n        uint[] memory allAccountBalances = new uint[](allAccountsLength);\n        for (uint i = 0; i < allAccountsLength; i++) {\n            allAccountAddresses[i] = trackedAccounts[i].accountAddress;\n            allAccountBalances[i] = trackedAccounts[i].accountBalance;\n        }\n        return (allAccountAddresses, allAccountBalances);\n    }\n\n    function getProposals() public view returns(\n        address[] memory,\n        uint[] memory,\n        bytes32[] memory,\n        uint[] memory,\n        bool[] memory,\n        bool[] memory,\n        uint[] memory) {\n        uint allProposalsLength = getProposalsLength();\n        address[] memory allProposalToAddresses = new address[](allProposalsLength);\n        uint[] memory allProposalAmounts = new uint[](allProposalsLength);\n        bytes32[] memory allProposalMetadatas = new bytes32[](allProposalsLength);\n        uint[] memory allProposalTypes = new uint[](allProposalsLength);\n        bool[] memory allProposalCompletes = new bool[](allProposalsLength);\n        bool[] memory allProposalSuccesses = new bool[](allProposalsLength);\n        uint[] memory allProposalMyVote = new uint[](allProposalsLength);\n        for (uint i = 0; i < allProposalsLength; i++) {\n            allProposalToAddresses[i] = proposals[i].toAddress;\n            allProposalAmounts[i] = proposals[i].amount;\n            allProposalMetadatas[i] = proposals[i].metadata;\n            allProposalTypes[i] = proposals[i].proposalType;\n            allProposalCompletes[i] = proposals[i].complete;\n            allProposalSuccesses[i] = proposals[i].success;\n            uint myVote = 0;\n            if(proposals[i].accountHasVoted[msg.sender]) {\n                if(proposals[i].accountVote[msg.sender]) {\n                    myVote = 2;\n                }\n                else {\n                    myVote = 1;\n                }\n            }\n            allProposalMyVote[i] = myVote;\n        }\n        return (allProposalToAddresses, allProposalAmounts, allProposalMetadatas,\n            allProposalTypes, allProposalCompletes, allProposalSuccesses, allProposalMyVote);\n    }\n\n    function _mint(address account, uint256 value) internal {\n        _trackAccount(account, value, true);\n        super._mint(account, value);\n    }\n\n    function _trackAccount(address account, uint256 value, bool sign) internal {\n        if(!_accountIsTracked[account]) {\n            _accountIsTracked[account] = true;\n            _trackedAccountIndex[account] = trackedAccounts.length;\n            trackedAccounts.push(TrackedAccount(account, 0));\n        }\n        uint index = _trackedAccountIndex[account];\n        TrackedAccount storage trackedAccount = trackedAccounts[index];\n        if (sign) {\n            trackedAccount.accountBalance = SafeMath.add(trackedAccount.accountBalance, value);\n        }\n        else {\n            trackedAccount.accountBalance = SafeMath.sub(trackedAccount.accountBalance, value);\n\n        }\n    }\n\n    function _transfer(address from, address to, uint256 value) internal {\n        _trackAccount(from, value, false);\n        _trackAccount(to, value, true);\n        super._transfer(from, to, value);\n    }\n\n}\n",
  "sourcePath": "/mnt/c/Users/musni/code/ethnyc/thlicing-pie/blockchain/contracts/PieOrg.sol",
  "compiler": {
    "name": "solc",
    "version": "0.5.0+commit.1d4f565a.Emscripten.clang"
  },
  "schemaVersion": "3.0.5",
  "updatedAt": "2019-05-19T03:46:12.688Z",
  "devdoc": {
    "methods": {
      "allowance(address,address)": {
        "details": "Function to check the amount of tokens that an owner allowed to a spender.",
        "params": {
          "owner": "address The address which owns the funds.",
          "spender": "address The address which will spend the funds."
        },
        "return": "A uint256 specifying the amount of tokens still available for the spender."
      },
      "approve(address,uint256)": {
        "details": "Approve the passed address to spend the specified amount of tokens on behalf of msg.sender. Beware that changing an allowance with this method brings the risk that someone may use both the old and the new allowance by unfortunate transaction ordering. One possible solution to mitigate this race condition is to first reduce the spender's allowance to 0 and set the desired value afterwards: https://github.com/ethereum/EIPs/issues/20#issuecomment-263524729",
        "params": {
          "spender": "The address which will spend the funds.",
          "value": "The amount of tokens to be spent."
        }
      },
      "balanceOf(address)": {
        "details": "Gets the balance of the specified address.",
        "params": {
          "owner": "The address to query the balance of."
        },
        "return": "An uint256 representing the amount owned by the passed address."
      },
      "decimals()": {
        "return": "the number of decimals of the token."
      },
      "decreaseAllowance(address,uint256)": {
        "details": "Decrease the amount of tokens that an owner allowed to a spender. approve should be called when allowed_[_spender] == 0. To decrement allowed value is better to use this function to avoid 2 calls (and wait until the first transaction is mined) From MonolithDAO Token.sol Emits an Approval event.",
        "params": {
          "spender": "The address which will spend the funds.",
          "subtractedValue": "The amount of tokens to decrease the allowance by."
        }
      },
      "increaseAllowance(address,uint256)": {
        "details": "Increase the amount of tokens that an owner allowed to a spender. approve should be called when allowed_[_spender] == 0. To increment allowed value is better to use this function to avoid 2 calls (and wait until the first transaction is mined) From MonolithDAO Token.sol Emits an Approval event.",
        "params": {
          "addedValue": "The amount of tokens to increase the allowance by.",
          "spender": "The address which will spend the funds."
        }
      },
      "name()": {
        "return": "the name of the token."
      },
      "symbol()": {
        "return": "the symbol of the token."
      },
      "totalSupply()": {
        "details": "Total number of tokens in existence"
      },
      "transfer(address,uint256)": {
        "details": "Transfer token for a specified address",
        "params": {
          "to": "The address to transfer to.",
          "value": "The amount to be transferred."
        }
      },
      "transferFrom(address,address,uint256)": {
        "details": "Transfer tokens from one address to another. Note that while this function emits an Approval event, this is not required as per the specification, and other compliant implementations may not emit the event.",
        "params": {
          "from": "address The address which you want to send tokens from",
          "to": "address The address which you want to transfer to",
          "value": "uint256 the amount of tokens to be transferred"
        }
      }
    }
  },
  "userdoc": {
    "methods": {},
    "notice": "The PieOrg contract does it all"
  }
}